:10000000C2C00000E0C00000DEC00000DCC0000094
:10001000DAC00000D8C00000D6C00000D4C0000084
:10002000D2C00000D0C00000CEC00000CCC0000094
:10003000CAC00000C8C00000C6C00000C4C00000A4
:10004000C2C00000FAC10000BEC00000BCC0000079
:10005000BAC00000B8C00000B6C00000B4C00000C4
:10006000B2C00000B0C00000AEC00000ACC00000D4
:10007000AAC00000A8C00000A6C00000A4C00000E4
:10008000A2C00000A0C000009EC000009CC00000F4
:100090009AC0000098C0000096C00000DDC60000B5
:1000A00092C0000090C000008EC000008CC0000014
:1000B0008AC0000088C0000086C0000084C0000024
:1000C00082C0000080C000007EC000007CC0000034
:1000D0007AC0000078C0000076C0000074C0000044
:1000E00072C0000047079907990799079907990770
:1000F0009907990747079907990799079907990752
:10010000990799074907990799079907990799073F
:1001100099079907990799079907990799079907DF
:10012000990799074907990799079907990799071F
:1001300099079907990799079907990799079907BF
:1001400099079907950799079907990799079907B3
:1001500099079907720799079907990799079907C6
:10016000990799079907990799079907990799078F
:1001700099079907660799079907990799079907B2
:1001800099079907840711241FBECFEFD1E2DEBF84
:10019000CDBF00E00CBF12E0A0E0B2E0EEEDFCE16C
:1001A00000E00BBF02C007900D92A035B107D9F750
:1001B00022E0A0E5B2E001C01D92A73AB207E1F744
:1001C00062D40C946D0E50C550D440E660EF80E6CA
:1001D000D9D343E06FE08BE2D5D340E060EE8FE00F
:1001E000D1D385E38A95F1F70000089580E390E08C
:1001F000F3D396958795969587959695879521E063
:1002000082278170992708951F93CF93DF93EC0184
:10021000EDDF892B71F18FE39CE90197F1F700C0C5
:100220000000688166956695669570E081E390E0D0
:10023000F4D3688190E2699FB001112482E390E0D9
:10024000ECD3698170E085E390E0E7D3898188236E
:1002500071F010E0812F90E0FE01E80FF91F62813C
:1002600070E0C696DAD31F5F8981181798F304D41B
:1002700004C08DE092E00E948B0BDF91CF911F9123
:100280000895EF92FF920F931F93CF93DF937C011A
:100290008CE290E0A1D380FF44C08FE39CE90197FA
:1002A000F1F700C0000081E690E096D3C82F82E607
:1002B00090E092D396958795929582958F70892735
:1002C0009F708927CC0FCC0FCC0F2C2F282BF70138
:1002D000208385E690E080D3F7018183893040F068
:1002E00088E0818387010E5F1F4FC0E0D0E003C02C
:1002F0008111F8CF0EC0CE018A599F4F6DD3F801FE
:1003000081938F012196F701218130E0C217D30735
:1003100094F340E06FEF8DE235D340E06FEF8CE275
:1003200031D3DF91CF911F910F91FF90EF900895FE
:1003300088E893E19093890080938800E0E8F0E0FA
:10034000808180648083E1E8F0E080818B6080833D
:10035000EFE6F0E08081826080830895813031F49F
:10036000E2E0F1E08081826080830895811105C020
:10037000E2E0F1E080818D7F80830895482F60E086
:1003800080E5C6C20895CF93DF93EC0182309105DA
:100390001CF081E0E3DF02C080E0E0DFCE01DD237E
:1003A00024F4882799278C1B9D0BE8DFDF91CF91E0
:1003B00008958F929F92AF92BF92CF92DF92EF9269
:1003C000FF920F931F9349015A016701780120E0C2
:1003D00030E04AE754E451D6609375027093760298
:1003E000809377029093780220E030E04AE754E46B
:1003F000C501B40142D660936F027093700280937E
:1004000071029093720220E030E04AE754E4C701A1
:10041000B60133D6609367027093680280936902D5
:1004200090936A021F910F91FF90EF90DF90CF9011
:10043000BF90AF909F908F9008951F920F920FB62C
:100440000F9211248F939F93809173028F5F8093FB
:10045000730280915A0290915B02019690935B0225
:1004600080935A028091580290915902019690937C
:1004700059028093580281E0809374029F918F917A
:100480000F900FBE0F901F901895E2E0F1E0808171
:100490008F7B80838FE193E00197F1F700C000002C
:1004A0008081806480830895CF93DF931F921F9291
:1004B000CDB7DEB7E2E0F1E080818F7D808380817F
:1004C000877F80838AE68A95F1F700C02091060134
:1004D00089819A81922B9A83898380818860808325
:1004E0008AE68A95F1F700C02091060189819A81F8
:1004F000822B9A8389838AE18A95F1F700C08981EA
:100500009A8120916B0230916C02820F931F90931D
:100510006C0280936B02B9DFE2E0F1E080818062DF
:10052000808380916B0290916C020F900F90DF910D
:10053000CF9108954F925F926F927F928F929F9288
:10054000AF92BF92CF92DF92EF92FF920F931F93E1
:10055000CF93DF9300D01F92CDB7DEB77C0180919F
:100560007402882309F41AC19FDF8C01B701882720
:1005700077FD8095982F1CD66B017C01B8018827E8
:1005800077FD8095982F14D64B015C01609108028D
:1005900070910902882777FD8095982F09D69B01D5
:1005A000AC01C501B401B8D64B015C0160910A02EF
:1005B00070910B02882777FD8095982FF9D59B01C4
:1005C000AC01C501B40159D59B01AC01C701B6010D
:1005D000EBD46B017C016091730270E080E090E0ED
:1005E000E7D52AE037ED43EA5CE396D62B013C01E0
:1005F000A701960191D62091540230915502409165
:10060000560250915702D1D44B015C0160935402C1
:100610007093550280935602909357020091060200
:100620001091070266277727601B710B882777FDDB
:100630008095982FBDD569837A838B839C839B019A
:10064000AC01C501B40115D588236CF489819A8168
:10065000AB81BC818093540290935502A0935602C3
:10066000B09357021DC0B801882777FD8095982F59
:100670009FD569837A838B839C839B01AC01C501E1
:10068000B40146D6181664F489819A81AB81BC8185
:100690008093540290935502A0935602B093570250
:1006A0002091750230917602409177025091780244
:1006B000C701B60131D64B015C0120915402309143
:1006C0005502409156025091570260916F0270910D
:1006D000700280917102909172021ED69B01AC0152
:1006E000C501B40162D44B015C01209150023091EC
:1006F00051024091520250915302C701B60154D4A5
:10070000A3019201BAD4209167023091680240910E
:10071000690250916A0200D69B01AC01C501B40187
:1007200044D44B015C01B7FAB094B7F8B094C092CE
:100730005002D0925102E0925202F092530220E015
:1007400030E044EB52E4C501B401E2D5181654F090
:1007500020E030E044EB52ECC501B4018AD4882398
:1007600054F011C00F2E812C912CF4EBAF2EF2E43B
:10077000BF2EF02D08C00F2E812C912CF4EBAF2E44
:10078000F2ECBF2EF02DC501B401DFD4CB01FBDDAF
:10079000AFE1BEE41197F1F700C0000010927402BF
:1007A000109273020F900F900F900F90DF91CF91E6
:1007B0001F910F91FF90EF90DF90CF90BF90AF907F
:1007C0009F908F907F906F905F904F900895CF9300
:1007D000DF9389E192E09FD780E590E0D4DD2FEFB1
:1007E00087EA91E6215080409040E1F700C0000088
:1007F00080E090E0C8DD2FEF83EC99E0215080404D
:100800009040E1F700C0000040DE8FE39CE90197D3
:10081000F1F700C0000080EB9FEFB5DD9FEF2BE705
:1008200082E9915020408040E1F700C0000080E064
:1008300090E0A9DD9FEF21EE84E0915020408040C0
:10084000E1F700C0000030DED82FC92F8FE39CE90C
:100850000197F1F700C00000CF93DF932DE232E063
:100860003F932F9347D780E590E08DDD9FEF29E6FA
:1008700088E1915020408040E1F700C0000080E016
:1008800090E081DD0F900F900F900F908D2F9C2F97
:10089000DF91CF910895CF93DF9336D049DDE1E02A
:1008A000F1E08081806480838081806280838081A8
:1008B0008061808380818260808380818860808382
:1008C00010920701C2E0D1E088818F7D8883DDDD51
:1008D00080E090E053DD88818061888378DF9093A9
:1008E0000B0280930A0210926E0210926D02109217
:1008F00073021092540210925502109256021092F6
:100900005702DF91CF9108957BD2519A7894089540
:10091000FF920F931F93CF93DF93F82E062F142F80
:1009200083E090E076D5EC01F88209831A8387ECA6
:1009300090E00197F1F700C0000063E0CE016AD2B9
:1009400087EC90E00197F1F700C00000CE01F9D5E7
:10095000DF91CF911F910F91FF900895EAE0F1E0B0
:1009600080818B7F8083EBE0F1E0808184608083F5
:1009700008952091090181E090E022FD02C080E00D
:1009800090E008951F93CF93DF93182FD62FC42F95
:1009900081E030D285E08A95F1F7000085E024D22D
:1009A00085E08A95F1F70000812F1ED285E08A95B7
:1009B000F1F700008D2F18D285E08A95F1F700003D
:1009C0008C2F12D285E08A95F1F7000080E012D2D8
:1009D000DF91CF911F910895CF93C82F81E00AD264
:1009E00085E08A95F1F7000083E0FED185E08A95E5
:1009F000F1F700008C2FF8D185E08A95F1F700001F
:100A00008FEFF2D1C82F85E08A95F1F7000080E0E2
:100A1000F1D18C2F90E0CF910895CF93DF93D82F11
:100A2000C62F81E0E7D185E08A95F1F7000082E0EA
:100A3000DBD185E08A95F1F700008D2FD5D185E0D7
:100A40008A95F1F700008C2FCFD185E08A95F1F7D8
:100A5000000080E0CFD1DF91CF91089581E0CAD12D
:100A600080ECC2D180E0C6C10895B6D1F7DF85E33E
:100A70008A95F1F70000089581E0BCD187E8B4D1F0
:100A800080E0B8C10895CF93DF931F92CDB7DEB752
:100A900076D29ADB00DFF2D061DF96D1F8947894B9
:100AA0008FE99FE00197F1F700C0000019828EE303
:100AB00092E031D60F2EF3E8CF2EF2E0DF2EF02DAC
:100AC0006894332431F80F2EF4E88F2EF2E09F2E35
:100AD000F02D0F2EF5E8AF2EF2E0BF2EF02D0F2EE9
:100AE000F8EC4F2E512CF02D0F2EF8EC2F2EF02D70
:100AF0000F2EF6E86F2EF2E07F2EF02D89E792E0C0
:100B0000C0DBEFE3FCE93197F1F700C00000809112
:100B10005A0290915B021816190684F72ADF892B76
:100B200011F5F6013082F401308281E0F301808317
:100B3000C6016ADB198284E690E0FCDCFFEF23ED5E
:100B400030E3F15020403040E1F700C000008981DF
:100B5000F5018083F3011082C60156DB10925B021F
:100B600010925A027AC080917902833089F5ECE7BD
:100B7000F2E080819201281B310930935F022093BB
:100B80005E02EFE7F2E0808180935D02EDE7F2E044
:100B90008081F22DF81BF0935C02E12CF12C08E42B
:100BA00013E420E030E84BEB55E460E070E48CE1C6
:100BB00095E4FFDB61E0EEE5F2E08081A0D080917A
:100BC0005C0290E0B7DC80915D0290E0FFD045C010
:100BD00080915D02882321F1809158029091590201
:100BE0004F973CF089818F5F898310925902109250
:100BF0005802F6013082F40130828981F501808348
:100C0000C60102DBFFEF21EE34E0F150204030401E
:100C1000E1F700C0000010925B0210925A021DC062
:100C200080915A0290915B0285369105B4F0F601ED
:100C30003082F40130828981F5018083C601E4DAD3
:100C4000FFEF21EE34E0F15020403040E1F700C0EA
:100C5000000010925B0210925A028FE39CE9019708
:100C6000F1F700C000004ACF1F920F920FB60F920B
:100C700011240F900FBE0F901F901895E0E9F0E03F
:100C800080818268808380818E7F8083E1E9F0E0CB
:100C900080818B61808380818B7F808388E893E172
:100CA00090939700809396006B9A87E791E09093DA
:100CB000990080939800109293021092920288EC0F
:100CC00090E090938F0280938E0210928D0248ECF8
:100CD000409390028AEF90E090939802809397025D
:100CE00024EF31E030939C0220939B0240939102C9
:100CF0004093960290939A028093990208956130EE
:100D000019F0623081F156C090E02091920230914A
:100D10009302821793070CF44FC040918E025091BA
:100D20008F02481759070CF449C0AC01421B530B02
:100D30002091990230919A02429FC001439F900DE9
:100D4000529F900D11246091910270E048D38091E0
:100D5000970290919802680F791F709399006093A1
:100D6000980080E0089590918D02891748F12091B4
:100D70009002281738F1482F50E0491B5109209163
:100D8000990230919A02429FC001439F900D529F59
:100D9000900D11246091960270E021D3809197020A
:100DA00090919802680F791F709399006093980052
:100DB00080E0089581E0089581E0089581E008953C
:100DC00081E0089581E008959D9A0895892B11F09E
:100DD000A59A0895A598089584B1876884B9239841
:100DE0008CB581658CBD08958EBD0DB407FEFDCF19
:100DF0008EB50895882311F02F9808952F9A08959D
:100E00008CE08093B8008FEF8093BB0084E08093E8
:100E1000BC000895ECEBF0E0208120FDFDCF609355
:100E20006202FC0120812093630220FD0CC062302D
:100E300050F0DC011196E4E6F2E081E09D9191939F
:100E40008F5F8613FBCF1092610288EF80930C02B4
:100E500085EA8093BC0008951F920F920FB60F92FF
:100E600011240BB60F922F933F938F939F93AF93C1
:100E7000BF93EF93FF938091B90090E0FC01389706
:100E8000E135F10508F055C0EE58FF4FBCC2109295
:100E90006002E091600280916202E81770F481E0E4
:100EA0008E0F80936002F0E0ED59FD4F80818093BA
:100EB000BB0085E88093BC0043C0809161028160E3
:100EC0008093610284E98093BC003AC0E0916002A3
:100ED00081E08E0F809360028091BB00F0E0ED59BD
:100EE000FD4F80832091600230E08091620290E0AB
:100EF00001972817390724F485EC8093BC0020C0A3
:100F000085E88093BC001CC08091BB00E09160022A
:100F1000F0E0ED59FD4F8083809161028160809304
:100F2000610284E98093BC000BC085EA8093BC0019
:100F300007C08091B90080930C0284E08093BC00CC
:100F4000FF91EF91BF91AF919F918F913F912F9121
:100F50000F900BBE0F900FBE0F901F901895E0ECF6
:100F6000F0E080818823ECF78091C6000895E0ECE2
:100F7000F0E0908195FFFDCF8093C600089587E64D
:100F80008093C4001092C500E1ECF0E0808188619C
:100F90008083E2ECF0E080818E6080836FEA77E00E
:100FA00087EB97E05DC308955058BB27AA270ED062
:100FB00075C166D130F06BD120F031F49F3F11F450
:100FC0001EF45BC10EF4E095E7FB51C1E92F77D128
:100FD00080F3BA17620773078407950718F071F456
:100FE0009EF58FC10EF4E0950B2EBA2FA02D0B01AC
:100FF000B90190010C01CA01A0011124FF27591B5E
:1010000099F0593F50F4503E68F11A16F040A22F63
:10101000232F342F4427585FF3CF469537952795D4
:10102000A795F0405395C9F77EF41F16BA0B620BD3
:10103000730B840BBAF09150A1F0FF0FBB1F661F1A
:10104000771F881FC2F70EC0BA0F621F731F841F5D
:1010500048F4879577956795B795F7959E3F08F083
:10106000B3CF9395880F08F09927EE0F9795879542
:101070000895D9D008F481E008950CD00FC107D1AC
:1010800040F0FED030F021F45F3F19F0F0C0511174
:1010900039C1F3C014D198F39923C9F35523B1F39F
:1010A000951B550BBB27AA2762177307840738F0D7
:1010B0009F5F5F4F220F331F441FAA1FA9F333D036
:1010C0000E2E3AF0E0E830D091505040E695001CEA
:1010D000CAF729D0FE2F27D0660F771F881FBB1FA6
:1010E000261737074807AB07B0E809F0BB0B802D80
:1010F000BF01FF2793585F4F2AF09E3F510568F0CC
:10110000B6C000C15F3FECF3983EDCF3869577955F
:101110006795B795F7959F5FC9F7880F911D9695CD
:10112000879597F90895E1E0660F771F881FBB1F29
:10113000621773078407BA0720F0621B730B840BD6
:10114000BA0BEE1F88F7E095089504D06894B111AA
:10115000D9C00895BCD088F09F5790F0B92F992737
:10116000B751A0F0D1F0660F771F881F991F1AF0B2
:10117000BA95C9F712C0B13081F0C3D0B1E008957B
:10118000C0C0672F782F8827B85F39F0B93FCCF3FC
:10119000869577956795B395D9F73EF490958095A8
:1011A000709561957F4F8F4F9F4F0895E89409C0C8
:1011B00097FB3EF490958095709561957F4F8F4F8A
:1011C0009F4F9923A9F0F92F96E9BB279395F695A0
:1011D000879577956795B795F111F8CFFAF4BB0F1E
:1011E00011F460FF1BC06F5F7F4F8F4F9F4F16C082
:1011F000882311F096E911C0772321F09EE8872F0C
:10120000762F05C0662371F096E8862F70E060E0C7
:101210002AF09A95660F771F881FDAF7880F969540
:10122000879597F90895990F0008550FAA0BE0E8E4
:10123000FEEF16161706E807F907C0F01216130698
:10124000E407F50798F0621B730B840B950B39F4D8
:101250000A2661F0232B242B252B21F408950A263E
:1012600009F4A140A6958FEF811D811D089597F97E
:101270009F6780E870E060E008959FEF80EC08953C
:1012800000240A9416161706180609060895002465
:101290000A9412161306140605060895092E0394DF
:1012A000000C11F4882352F0BB0F40F4BF2B11F453
:1012B00060FF04C06F5F7F4F8F4F9F4F089557FDB2
:1012C0009058440F551F59F05F3F71F04795880FB4
:1012D00097FB991F61F09F3F79F08795089512164B
:1012E00013061406551FF2CF4695F1DF08C01616F7
:1012F00017061806991FF1CF8695710561050894A8
:101300000895E894BB2766277727CB0197F90895BE
:101310008ADF08F48FEF08950BD0C0CFB1DF28F03B
:10132000B6DF18F0952309F0A2CFA7CF1124EACF9A
:10133000C6DFA0F3959FD1F3950F50E0551F629F34
:10134000F001729FBB27F00DB11D639FAA27F00D1E
:10135000B11DAA1F649F6627B00DA11D661F829F45
:101360002227B00DA11D621F739FB00DA11D621F2A
:10137000839FA00D611D221F749F3327A00D611D47
:10138000231F849F600D211D822F762F6A2F112429
:101390009F5750408AF0E1F088234AF0EE0FFF1F7C
:1013A000BB1F661F771F881F91505040A9F79E3FB3
:1013B000510570F05CCFA6CF5F3FECF3983EDCF3B5
:1013C000869577956795B795F795E7959F5FC1F7F0
:1013D000FE2B880F911D9695879597F90895AA1B66
:1013E000BB1B51E107C0AA1FBB1FA617B70710F010
:1013F000A61BB70B881F991F5A95A9F78095909542
:10140000BC01CD010895EE0FFF1F0590F491E02D72
:101410001994CF93DF938230910510F482E090E02D
:10142000E0919F02F091A00220E030E0A0E0B0E067
:10143000309739F14081518148175907B8F0481762
:10144000590771F482819381109729F013969C9328
:101450008E9312972CC09093A00280939F0227C076
:101460002115310531F04217530718F0A901DB01AE
:1014700001C0EF019A01BD01DF010280F381E02D7F
:10148000D7CF21153105F9F0281B390B2430310550
:1014900080F48A819B816115710521F0FB019383A2
:1014A000828304C09093A00280939F02FE01329633
:1014B00044C0FE01E20FF31F819391932250310942
:1014C000398328833AC020919D0230919E02232BBC
:1014D00041F4209102023091030230939E02209346
:1014E0009D0220910002309101022115310541F445
:1014F0002DB73EB74091040250910502241B350BD5
:10150000E0919D02F0919E02E217F307A0F42E1BDA
:101510003F0B2817390778F0AC014E5F5F4F241757
:10152000350748F04E0F5F1F50939E0240939D0277
:101530008193919302C0E0E0F0E0CF01DF91CF9181
:101540000895CF93DF93009709F487C0FC01329789
:1015500013821282C0919F02D091A002209781F441
:1015600020813181280F391F80919D0290919E0228
:101570008217930779F5F0939E02E0939D026DC068
:10158000DE0120E030E0AE17BF0750F412964D9117
:101590005C9113979D014115510509F1DA01F3CFD3
:1015A000B383A28340815181840F951F8A179B07C3
:1015B00071F48D919C911197840F951F02969183E0
:1015C000808312968D919C9113979383828321152A
:1015D000310529F4F093A002E0939F023EC0D901A7
:1015E0001396FC93EE9312974D915D91A40FB51F46
:1015F000EA17FB0779F480819181840F951F029689
:10160000D90111969C938E938281938113969C931A
:101610008E931297E0E0F0E08A819B81009719F0A9
:10162000FE01EC01F9CFCE01029628813981820FAB
:10163000931F20919D0230919E022817390769F46B
:10164000309729F41092A00210929F0202C01382D8
:101650001282D0939E02C0939D02DF91CF91089594
:101660000F931F93CF93DF93EC018B01009731F41D
:101670006115710519F480E090E037C06EE070E00C
:1016800081E090E063D2FC010097A9F380E88383B6
:101690000115110571F01387028781E8838380911A
:1016A000A1029091A202892B21F4F093A202E0936F
:1016B000A1022097C9F0D187C0878381826083838C
:1016C0008091A3029091A402892B71F4F093A4025B
:1016D000E093A3028091A5029091A602892B21F4A8
:1016E000F093A602E093A502CF01DF91CF911F9165
:1016F0000F910895CF93DF93CDB7DEB7FE013696F5
:1017000061917191AF018091A3029091A40230D0B8
:10171000DF91CF9108950F931F93CF93DF93E091C3
:10172000A302F091A402238121FF1BC0EC0100E081
:1017300010E089916091A3027091A402DB011896D8
:10174000ED91FC911997882331F01995892B89F334
:101750000FEF1FEFEECF8AE01995892B11F4C80126
:1017600002C08FEF9FEFDF91CF911F910F910895EE
:101770002F923F924F925F926F927F928F929F92A1
:10178000AF92BF92CF92DF92EF92FF920F931F938F
:10179000CF93DF93CDB7DEB72C970FB6F894DEBFAB
:1017A0000FBECDBF7C016B018A01FC01178216823E
:1017B000838181FFB0C1CE0101964C01F701938175
:1017C000F60193FD859193FF81916F01882309F4C0
:1017D0009EC1853239F493FD859193FF81916F010C
:1017E000853221F4B70190E0E8D1E8CF512C312CBB
:1017F00020E02032A0F48B3269F030F4803259F0CE
:10180000833269F420612CC08D3239F0803339F491
:10181000216026C02260246023C0286021C027FDEB
:1018200027C030ED380F3A3078F426FF06C0FAE0D2
:101830005F9E300D1124532E13C08AE0389E300D68
:101840001124332E20620CC08E3221F426FD5FC19C
:10185000206406C08C3611F4206802C0883641F43A
:10186000F60193FD859193FF81916F018111C1CFA5
:10187000982F9F7D9554933028F40C5F1F4FFFE302
:10188000F9830DC0833631F0833771F0833509F069
:1018900057C021C0F801808189830E5F1F4F442407
:1018A0004394512C540114C03801F2E06F0E711CA6
:1018B000F801A080B18026FF03C0652D70E002C052
:1018C0006FEF7FEFC5012C876DD12C0183012C8533
:1018D0002F77222E16C03801F2E06F0E711CF8012E
:1018E000A080B18026FF03C0652D70E002C06FEFBD
:1018F0007FEFC5012C8744D12C012C852068222E36
:10190000830123FC19C0832D90E048165906A0F4EA
:10191000B70180E290E051D13A94F5CFF50127FC70
:10192000859127FE81915F01B70190E046D131108A
:101930003A94F1E04F1A51084114510479F7DEC08E
:10194000843611F0893631F5F80127FF07C0608130
:101950007181828193810C5F1F4F08C0608171810A
:10196000882777FD8095982F0E5F1F4F2F76B22E18
:1019700097FF09C090958095709561957F4F8F4F27
:101980009F4F2068B22E2AE030E0A40148D1A82E53
:10199000A81843C0853729F42F7EB22E2AE030E004
:1019A00025C0F22FF97FBF2E8F36C1F018F488358D
:1019B00079F0ADC0803719F0883721F0A8C02F2FFB
:1019C0002061B22EB4FE0DC08B2D8460B82E09C0EC
:1019D00024FF0AC09F2F9660B92E06C028E030E091
:1019E00005C020E130E002C020E132E0F801B7FE9E
:1019F00007C060817181828193810C5F1F4F06C097
:101A00006081718180E090E00E5F1F4FA40107D1DB
:101A1000A82EA818FB2DFF77BF2EB6FE0BC02B2DCE
:101A20002E7FA51450F4B4FE0AC0B2FC08C02B2DC2
:101A30002E7E05C07A2C2B2D03C07A2C01C0752C6C
:101A400024FF0DC0FE01EA0DF11D8081803311F4E9
:101A5000297E09C022FF06C07394739404C0822FAC
:101A6000867809F0739423FD12C020FF06C05A2C1B
:101A7000731418F4530C5718732C731460F4B701D3
:101A800080E290E02C8799D073942C85F6CF731464
:101A900010F4371801C0312C24FF11C0B70180E3C6
:101AA00090E02C878AD02C8522FF16C021FF03C02E
:101AB00088E590E002C088E790E0B7010CC0822F73
:101AC000867851F021FD02C080E201C08BE227FD43
:101AD0008DE2B70190E071D0A51430F4B70180E336
:101AE00090E06BD05A94F8CFAA94F401EA0DF11D5E
:101AF0008081B70190E061D0A110F6CF332009F4C6
:101B00005DCEB70180E290E058D03A94F7CFF7016C
:101B10008681978102C08FEF9FEF2C960FB6F894C5
:101B2000DEBF0FBECDBFDF91CF911F910F91FF9010
:101B3000EF90DF90CF90BF90AF909F908F907F906D
:101B40006F905F904F903F902F9008950F931F9349
:101B5000CF93DF93869F8001879F100D969F100D76
:101B60001124C80156DCEC01009721F0A80160E0C7
:101B700070E011D0CE01DF91CF911F910F910895A8
:101B8000FC010590615070400110D8F78095909548
:101B90008E0F9F1F0895DC0101C06D93415050408E
:101BA000E0F70895FC016150704001900110D8F7F2
:101BB000809590958E0F9F1F08950F931F93CF933D
:101BC000DF93182F092FEB018B8181FD03C08FEF6D
:101BD0009FEF20C082FF10C04E815F812C813D812C
:101BE000421753077CF4E881F9819F012F5F3F4F33
:101BF00039832883108306C0E885F985812F1995DC
:101C0000892B29F72E813F812F5F3F4F3F832E8302
:101C1000812F902FDF91CF911F910F910895FA019D
:101C2000AA27283051F1203181F1E8946F936E7F1B
:101C30006E5F7F4F8F4F9F4FAF4FB1E03ED0B4E00C
:101C40003CD0670F781F891F9A1FA11D680F791F4D
:101C50008A1F911DA11D6A0F711D811D911DA11D5E
:101C600020D009F468943F912AE0269F112430196E
:101C7000305D3193DEF6CF010895462F4770405D09
:101C80004193B3E00FD0C9F7F6CF462F4F70405DB8
:101C90004A3318F0495D31FD4052419302D0A9F713
:101CA000EACFB4E0A6959795879577956795BA950D
:101CB000C9F700976105710508959B01AC010A2ED3
:101CC00006945795479537952795BA95C9F7620FAA
:0E1CD000731F841F951FA01D0895F894FFCF69
:101CDE000000A70220009600B4001027F853656E8E
:101CEE0064746520696B6B650046696E64696E6726
:101CFE0020656E636F646572206D617800456E635A
:101D0E006F646572204D41583A2025690A0053745C
:101D1E006172742070E52070726F6772616D0000E1
:00000001FF
