:100000000C94B80F0C94D50F0C94D50F0C94D50FFD
:100010000C94D50F0C94D50F0C94D50F0C94D50FD0
:100020000C94D50F0C94D50F0C94D50F0C94D50FC0
:100030000C94D50F0C9430110C94D50F0C94D50F53
:100040000C94D50F0C94D50F0C94D50F0C94D50FA0
:100050000C94D50F0C94D50F0C94D50F0C94D50F90
:100060000C94D50F0C94D50F0C94D50F0C94D50F80
:100070001FFFFFFFFFFFFFF81FFFFFFFFFFFFFF85E
:100080001FFFFFFFFFFFFFF81FFFFFFFFFFFFFF84E
:100090001FFFFFFFFFFFFFF81FFFFFFFFFFFFFF83E
:1000A0001FFFFFFFFFFFFFF81FFFFFFFFFFFFFF82E
:1000B0001FFFFFFFFFFFFFF81FFFFFFFFFFFFFF81E
:1000C0001FFFFFFFFFFFFFF81FFFFFFFFFFFFFF80E
:1000D0001FFFFFFFFFFFFFF81FFFFFFFFFFFFFF8FE
:1000E0001FFFFFFFFFFFFFF81FFFFFFFFFFFFFF8EE
:1000F0001FFFFFFFFFFFFFF81FFFFFFFFFFFFFF8DE
:100100001FFFFFFFFFFFFFF81FFFFFFFFFFFFFF8CD
:100110001FFFFFFFFFFFFFF81FFFFFFFFFFFFFF8BD
:100120001FC1FFFFFFFFFFF81FDC7FFFFFFFFFF88E
:100130001F9F9FFFFFFFFFF81FBFEFFFFFFFFFF8AD
:100140001FBFEFFFFFFFFFF81FBFEFFFFFFFFFF82D
:100150001F3FDFFFFFFFFFF81F7FDFFFFFFFFFF8FD
:100160001F7FDFFFFFFFFFF81F7FBFFFFFFFFFF8CD
:100170001F7FBFFFFFFFFFF81F7FBFFFFFFFFFF8DD
:100180001F7FBFFFFFFFFFF81F3FBFFFFFFFFFF80D
:100190001F3F3FFFFFFFFFF81FBF7FFFFFFCBFF8C0
:1001A0001FBF7FFFFFFA1FF81FBF3FFFFFF29FF83F
:1001B0001FBFDFFFFFF59FF81F9FDFFFFFE5BFF8C1
:1001C0001FC01FFFFFEBBFF81FFF8C7FFFD7BFF8DB
:1001D0001FFFE3BFFF873FF81FFFDC38FF8F7FF86B
:1001E0001FFFD3107F1E7FF81FFFCF007F3EFFF859
:1001F0001FFFFF87023CFFF81FFFFF9F3C7DFFF8BA
:100200001FFFFFFF7EFBFFF81FFFFFFEFFF3FFF85E
:100210001FFFFFFEFFF7FFF81FFFFFFDFFF3FFF8D3
:100220001FFFFFFDFFFBFFF81FFFFFFC7FF9FFF83B
:100230001FFFFFF87FFDFFF81FFFFFF87FFDFFF8AE
:100240001FFFFFF9FFFCFFF81FFFFFF3FFFCFFF8A4
:100250001FFFFFF7FFFDFFF81FFFFFF7FFFDFFF890
:100260001F3FFFF7FFF9FFF81F3FFFF0FFE5FFF823
:100270001F1FFFF0F00DFFF81F0FFFF0FFFDFFF84D
:100280001E0FFFF3FFFDFFF81E07FFF7FFFDFFF84E
:100290001E07FFF7FFFDFFF81E07FFF7FFF9FFF846
:1002A0001E03FFF7FFFBFFF81AFBFFF7FFFBFFF84A
:1002B00018FBF817FFF3FFF818FDC7E3FFF7FFF887
:1002C00018FD9FFDFFE7FFF81C7C7FFFFFEFFFF8A5
:1002D0001C7CFFFFFFDFFFF81C7CFFFFFE9FFFF889
:1002E0001E3EFFFFBEBFFFF81E3EFFFFBE7FFFF8B2
:1002F0001F3EFFFFBF7FFFF81F1EFFFFBF7FFFF8FE
:100300001F9FFFFFBF7FFFF81F8FFFFFBF7FFFF81B
:100310001FC7FFFFBF7FFFF81FE7FFFFBF7FFFF88B
:100320001FEFFFFFBF3FFFF81FEFFFFC5F7FFFF8EE
:100330001FEFFFF81F7FFFF81FE7FFF80F7FFFF8A1
:100340001FF7FFF82F7FFFF81FF7FFFC277FFFF84D
:100350001FF7FFFE707FFFF81FFBFF9FF0FFFFF806
:100360001FFBFF0FF7FFFFF81FFDFF0FEFFFFFF869
:100370001FFEFF0FCFFFFFF81FFF3FFF9FFFFFF89C
:100380001FFF80073FFFFFF81FFFE070FFFFFFF830
:100390001FFFFFF9FFFFFFF81FFFFFFFFFFFFFF841
:1003A0001FFFFFFFFFFFFFF81FFFFFFFFFFFFFF82B
:1003B0001FFFFFFFFFFFFFF81FFFFFFFFFFFFFF81B
:1003C0001FFFFFFFFFFFFFF81FFFFFFFFFFFFFF80B
:1003D0001FFFFFFFFFFFFFF81FFFFFFFFFFFFFF8FB
:1003E0001FFFFFFFFFFFFFF81FFFFFFFFFFFFFF8EB
:1003F0001FFFFFFFFFFFFFF81FFFFFFFFFFFFFF8DB
:100400001FFFFFFFFFFFFFF81FFFFFFFFFFFFFF8CA
:100410001FFFFFFFFFFFFFF81FFFFFFFFFFFFFF8BA
:100420001FFFFFFFFFFFFFF81FFFFFFFFFFFFFF8AA
:100430001FFFFFFFFFFFFFF81FFFFFFFFFFFFFF89A
:100440001FFFFFFFFFFFFFF81FFFFFFFFFFFFFF88A
:100450001FFFFFFFFFFFFFF81FFFFFFFFFFFFFF87A
:100460001FFFFFFFFFFFFFF81FFFFFFFFFFFFFF86A
:100470001FFFFFFFFFFFFFF81FFFFFFFFFFFFFF85A
:100480001FFFFFFFFFFFFFF81FFFFFFFFFFFFFF84A
:100490001FFFFFFFFFFFFFF81FFFFFFFFFFFFFF83A
:1004A0001FFFFFFFFFFFFFF81FFFFFFFFFFFFFF82A
:1004B0001FFFFFFFFFFFFFF81FFFFFFFFFFFFFF81A
:1004C0001FFFFFFFFFFFFFF81FFFFFFFFFFFFFF80A
:1004D0001FFFFFFFFFFFFFF81FFFFFFFFFFFFFF8FA
:1004E0001FFFFFFFFFFFFFF81FFFFFFFFFFFFFF8EA
:1004F0001FFFFFFFFFFFFFF81FFFFFFFFFFFFFF8DA
:100500001FFFFFFFFFFFFFF81FFFFFFFFFFFFFF8C9
:100510001FFFFFFFFFFFFFF81FFFFFFFFFFFFFF8B9
:100520001FFFFFFFFFFFFFF81FFFFFFFFFFFFFF8A9
:100530001FFFFFFFFFFFFFF81F007FFFFFFFFFF818
:100540001EFF7FFFFFFFFFF81EFF7FFFFFFFFFF88B
:100550001EFEFFFFFFFFFFF81EFEFFFFFFFFFFF87D
:100560001EFEFFFFFFFFFFF81EFEFFFFFFFFFFF86D
:100570001EFEFFFFFFFFFFF81EFEFFFFFFFFFFF85D
:100580001EFEFFFFFFFFFFF81EFEFFFFFFFFFFF84D
:100590001EFEFFFFFFC3FFF81E7EFFFFFFC5FFF833
:1005A0001F7EFFFFFFADFFF81F7EFFFFFF9DFFF8DF
:1005B0001F7EFFFFFF1DFFF81F3F3FFFFF39FFF8C2
:1005C0001FBF9FFFFE3BFFF81FBC1FFFFE7BFFF816
:1005D0001FC39C7FFC7BFFF81FDF82B8FC73FFF812
:1005E0001FFFC410FCF7FFF81FFFD3027CF7FFF8D2
:1005F0001FFFEF8601F7FFF81FFFFFDE79F7FFF817
:100600001FFFFFFEF9F7FFF81FFFFFFCFBF7FFF8E6
:100610001FFFFFFDFBEFFFF81FFFFFF9FFE7FFF8EC
:100620001FFFFFFBFFF3FFF81FFFFFF8FFF9FFF8C5
:100630001FFFFFF07FFDFFF81FFFFFF0FFFCFFF83B
:100640001FFFFFF1FFFEFFF81FFFFFF7FFFEFFF8A0
:100650001FFFFFF7FFFCFFF81FFFFFF7FFFDFFF88D
:100660001FFFFFF7FFF1FFF81FFFFFF1FFC5FFF8C6
:100670001FFFFFF0FC1DFFF81CFFFFE1FFFDFFF86F
:100680001C7FFFE3FFFDFFF81C3FFFF7FFFDFFF8B6
:100690001C3FFFF7FFF9FFF81C1FFFF7FFFBFFF8F8
:1006A0001C0FFFF7FFFBFFF81C0FFFF7FFF3FFF82E
:1006B0001DE7FFF3FFF7FFF811F7FFFBFFF7FFF868
:1006C00010F7F003FFEFFFF810FBCFF9FFEFFFF893
:1006D00018FBBFFFFFDFFFF8187B7FFFFF9FFFF8CE
:1006E0001B78FFFFFF9FFFF81D3DFFFFDF9FFFF817
:1006F0001DBDFFFFDF9FFFF81C9DFFFFDFDFFFF841
:100700001EDDFFFFCFCFFFF81F6FFFFFEFCFFFF81A
:100710001F77FFFFEFCFFFF81FB7FFFFEFCFFFF807
:100720001FD7FFFFE7EFFFF81FE7FFFFF7EFFFF827
:100730001FE7FFFEF3E7FFF81FF7FFFC7BE7FFF87B
:100740001FF7FFF839E7FFF81FF7FFF838CFFFF87A
:100750001FF7FFF8325FFFF81FF3FFFC771FFFF86A
:100760001FFBFFFFF7BFFFF81FF9FF8FEFFFFFF839
:100770001FFDFF07EFFFFFF81FFCFF07DFFFFFF87C
:100780001FFE7F8FBFFFFFF81FFF1FE73FFFFFF830
:100790001FFFC0107FFFFFF81FFFFFF9FFFFFFF8EB
:1007A0001FFFFFFFFFFFFFF81FFFFFFFFFFFFFF827
:1007B0001FFFFFFFFFFFFFF81FFFFFFFFFFFFFF817
:1007C0001FFFFFFFFFFFFFF81FFFFFFFFFFFFFF807
:1007D0001FFFFFFFFFFFFFF81FFFFFFFFFFFFFF8F7
:1007E0001FFFFFFFFFFFFFF81FFFFFFFFFFFFFF8E7
:1007F0001FFFFFFFFFFFFFF81FFFFFFFFFFFFFF8D7
:100800001FFFFFFFFFFFFFF81FFFFFFFFFFFFFF8C6
:100810001FFFFFFFFFFFFFF81FFFFFFFFFFFFFF8B6
:100820001FFFFFFFFFFFFFF81FFFFFFFFFFFFFF8A6
:100830001FFFFFFFFFFFFFF81FFFFFFFFFFFFFF896
:100840001FFFFFFFFFFFFFF81FFFFFFFFFFFFFF886
:100850001FFFFFFFFFFFFFF81FFFFFFFFFFFFFF876
:100860001FFFFFFFFFFFFFF81FFFFFFFFFFFFFF866
:100870001FFFFFFFFFFFFFF81FFFFFFFFFFFFFF856
:100880001FFFFFFFFFFFFFF81FFFFFFFFFFFFFF846
:100890001FFFFFFFFFFFFFF81FFFFFFFFFFFFFF836
:1008A0001FFFFFFFFFFFFFF81FFFFFFFFFFFFFF826
:1008B0001FFFFFFFFFFFFFF81FFFFFFFFFFFFFF816
:1008C0001FFFFFFFFFFFFFF81FFFFFFFFFFFFFF806
:1008D0001FFFFFFFFFFFFFF81FFFFFFFFFFFFFF8F6
:1008E0001FFFFFFFFFFFFFF81FFFFFFFFFFFFFF8E6
:1008F0001FFFFFFFFFFFFFF81FFFFFFFFFFFFFF8D6
:100900001FFFFFFFFFFFFFF81FFFFFFFFFFFFFF8C5
:100910001FFFFFFFFFFFFFF81FFFFFFFFFFFFFF8B5
:100920001FFFFFFFFFFFFFF81FFFFFFFFFFFFFF8A5
:100930001FFFFFFFFFFFFFF81FFFFFFFFFFFFFF895
:100940001FFFFFFFFFFFFFF81FFFFFFFFFFFFFF885
:100950001FFFFFFFFFFFFFF81FFFFFFFFFFFFFF875
:100960001FFFFFFFFFFFFFF81FFFFFFFFFFFFFF865
:100970001FFFFFFFFFFFFFF81FFFFFFFFFFFFFF855
:100980001FFFFFFFFFFFFFF81FFFFFFFFFFFFFF845
:100990001FFFFFFFFFFFFFF81FFFFFFFFFFFFFF835
:1009A0001FFFFFFFFFFFFFF81FFFFFFFFF8FFFF895
:1009B0001FFFFFFFFF2FFFF81FFFFFFFFE6FFFF876
:1009C00003FFFFFFFCCFFFF80BFFFFFFF9DFFFF88E
:1009D0001DFFFFFFF3BFFFF81DFFFFFFE7BFFFF89D
:1009E0001EFFFFFFC77FFFF81EFFFFFFCF7FFFF84F
:1009F0001F7FFFFF8E7FFFF81F7FFFFF9EFFFFF827
:100A00001FBFFFFF9EFFFFF81FDFF79C180FFFF8C7
:100A10001FC9E301B3E3FFF81FE0C027BFF9FFF8E8
:100A20001FFE806FBFFDFFF81FFD08EFBFFEFFF840
:100A30000FFA5CEFFFFEFFF813F31FEFFFFEFFF866
:100A400019F7BFE1FFFEFFF81E77FFE1FFFEFFF899
:100A50001F2FFFE3FFFCFFF81FCFFFE3FFFDFFF8B1
:100A60001FFFFFE7FFF8FFF81FFFFFEFFFFEFFF894
:100A70001FFFFFEFFFFEFFF81FFFFFEFFFFEFFF876
:100A80001FFFFFE7FFFEFFF81FFFFFF07FFEFFF8ED
:100A90001FFFFFF0FFFEFFF81FFFFFF1FFFEFFF853
:100AA0001FFFFFFBFFFF7FF81FFFFFFBFFFF7FF82C
:100AB0001FFFFFF9FFFEFFF81FFFFFFDFFFEFFF81E
:100AC0001F8FFFFDFFFEFFF81F83FFFEFFE6FFF80D
:100AD0001FC1FFF83FF07FF81FC0FFC3FFFC3FF8C6
:100AE0001FC07F1FFFFE1FF81FE33E7FFFFF1FF8A1
:100AF0001FEFBCFFFEFF8FF81FEFDDFFFF7FC7F882
:100B00001FF7CBFFFF7FE7F81F07E3FFFF3FF3F877
:100B10001F03F7FFFFBFFBF81F81F7FFFFDFF9F8A7
:100B20001FC0F3FFFFCFF9F81FCEFBFFFFE7FDF873
:100B30001FF73FFFFFF3FDF81FFB9FFFFC78FFF857
:100B40001FFCCFFFF83A7EF81FFE27FFF83B1EF888
:100B50001FFFCFFFF83BCDF81FFFEFFFFC33F1F88D
:100B60001FFFEFFFFFF7FDF81FFFF7FFFFF7FFF88D
:100B70001FFFF7FFFFF7FFF81FFFF3FFCFE7FFF8B7
:100B80001FFFFBFF87EFFFF81FFFF9FF87EFFFF85D
:100B90001FFFFCFFCFDFFFF81FFFFE7FFFBFFFF847
:100BA0001FFFFF1FE33FFFF81FFFFFC018FFFFF805
:100BB0001FFFFFFFFFFFFFF81FFFFFFFFFFFFFF813
:100BC0001FFFFFFFFFFFFFF81FFFFFFFFFFFFFF803
:100BD0001FFFFFFFFFFFFFF81FFFFFFFFFFFFFF8F3
:100BE0001FFFFFFFFFFFFFF81FFFFFFFFFFFFFF8E3
:100BF0001FFFFFFFFFFFFFF81FFFFFFFFFFFFFF8D3
:100C00001FFFFFFFFFFFFFF81FFFFFFFFFFFFFF8C2
:100C10001FFFFFFFFFFFFFF81FFFFFFFFFFFFFF8B2
:100C20001FFFFFFFFFFFFFF81FFFFFFFFFFFFFF8A2
:100C30001FFFFFFFFFFFFFF81FFFFFFFFFFFFFF892
:100C40001FFFFFFFFFFFFFF81FFFFFFFFFFFFFF882
:100C50001FFFFFFFFFFFFFF81FFFFFFFFFFFFFF872
:100C60001FFFFFFFFFFFFFF81FFFFFFFFFFFFFF862
:100C70001FFFFFFFFFFFFFF81FFFFFFFFFFFFFF852
:100C80001FFFFFFFFFFFFFF81FFFFFFFFFFFFFF842
:100C90001FFFFFFFFFFFFFF81FFFFFFFFFFFFFF832
:100CA0001FFFFFFFFFFFFFF81FFFFFFFFFFFFFF822
:100CB0001FFFFFFFFFFFFFF81FFFFFFFFFFFFFF812
:100CC0001FFFFFFFFFFFFFF81FFFFFFFFFFFFFF802
:100CD0001FFFFFFFFFFFFFF81FFFFFFFFFFFFFF8F2
:100CE0001FFFFFFFFFFFFFF81FFFFFFFFFFFFFF8E2
:100CF0001FFFFFFFFFFFFFF81FFFFFFFFFFFFFF8D2
:100D00001FFFFFFFFFFFFFF81FFFFFFFFFFFFFF8C1
:100D10001FFFFFFFFFFFFFF81FFFFFFFFFFFFFF8B1
:100D20001FFFFFFFFFFFFFF81FFFFFFFFFFFFFF8A1
:100D30001FFFFFFFFFFFFFF81FFFFFFFFFFFFFF891
:100D40001FFFFFFFFFFFFFF81FFFFFFFFFFFFFF881
:100D50001FFFFFFFFFFFFFF81FFFFFFFFFFFFFF871
:100D60001FFFFFFFFFFFFFF81FFFFFFFFFFFFFF861
:100D70000003FFFFFFFFFFF807FFFFFFFFFFFFF884
:100D80000FF7FFFFFFFFFFF80FF7FFFFFFFFFFF871
:100D90000FF7FFFFFFFFFFF80FF7FFFFFFFFFFF861
:100DA0000FF7FFFFFFFFFFF80FF7FFFFFFFFFFF851
:100DB0000FF7FFFFFFFFFFF80FF7FFFFFFFFFFF841
:100DC0000FF7FFFFFFFC07F80FF7FFFFFFE1F7F852
:100DD0000FF7FFFFFF8FF7F807F7FFFFFE3FC7F89A
:100DE00007F7FFFFF8FE2FF817F7FFFFF3F8E7F814
:100DF00017F1FFFFF7F00FF81BFDF7FFE7C3FFF850
:100E00001BF0C7DE070FFFF81BCC3B08FFE3FFF822
:100E10001D3D8203FFF9FFF81C7E3067FFFDFFF8E0
:100E20001FFEF86FFFFEFFF81FFFF8EFFFFEFFF851
:100E30001FFFFFCFFFFEFFF81FFFFFDFFFFEFFF8E2
:100E40001FFFFFDFFFFEFFF81FFFFFC1FFFEFFF8E0
:100E50001FFFFFC1FFFCFFF81FFFFFC3FFF9FFF8F3
:100E60001FFFFFE7FFF7FFF81FFFFFE7FFFEFFF899
:100E70001FFFFFEFFFFEFFF81FFFFFE7FFFEFFF87A
:100E80001FFFFFF7FFFEFFF81FFFFFF07FFEFFF8D9
:100E90001FF9FFF0FFFEFFF81FF8FFF9FFFEFFF854
:100EA0001FF87FFBFFFF7FF81FF87FFBFFFF7FF836
:100EB0001FF83FFDFFFF7FF81FF81FFDFFFF7FF8C2
:100EC0001FF80FFCFFFEFFF81FC9EFFEFFF27FF8CF
:100ED0001FC1E7F83FF89FF81FC1F7C3FEFE4FF8A8
:100EE0001FC1F79FFF7F8FF81FE0FB7FFF7FC7F8D1
:100EF0001FEEF8FFFF7FE3F81FE679FFFFBFF3F86F
:100F00001FF779FFFF9FF9F81FFB3DFFFFDFF9F89F
:100F10001FF9BDFFFFEFFDF81FFD9DFFFFF7FDF877
:100F20001FFEDDFFFFF1FDF81FFE6FFFFFF8FEF86B
:100F30001FFF27FFFFFA7EF81FFF87FFFC3B9EF88D
:100F40001FFFCFFFF83BCEF81FFFEFFFF81BF2F8B3
:100F50001FFFEFFFF83BF8F81FFFEFFFFC3BFFF828
:100F60001FFFEFFFFF73FFF81FFFE7FFFFF7FFF81B
:100F70001FFFF7FFFFF7FFF81FFFF7FFCFE7FFF8AF
:100F80001FFFFBFF87EFFFF81FFFF9FF87CFFFF879
:100F90001FFFFCFFCFDFFFF81FFFFE7FFF9FFFF863
:100FA0001FFFFF1FE13FFFF81FFFFFC0187FFFF883
:100FB0001FFFFFF07FFFFFF81FFFFFFFFFFFFFF89E
:100FC0001FFFFFFFFFFFFFF81FFFFFFFFFFFFFF8FF
:100FD0001FFFFFFFFFFFFFF81FFFFFFFFFFFFFF8EF
:100FE0001FFFFFFFFFFFFFF81FFFFFFFFFFFFFF8DF
:100FF0001FFFFFFFFFFFFFF81FFFFFFFFFFFFFF8CF
:101000001FFFFFFFFFFFFFF81FFFFFFFFFFFFFF8BE
:101010001FFFFFFFFFFFFFF81FFFFFFFFFFFFFF8AE
:101020001FFFFFFFFFFFFFF81FFFFFFFFFFFFFF89E
:101030001FFFFFFFFFFFFFF81FFFFFFFFFFFFFF88E
:101040001FFFFFFFFFFFFFF81FFFFFFFFFFFFFF87E
:101050001FFFFFFFFFFFFFF81FFFFFFFFFFFFFF86E
:101060001FFFFFFFFFFFFFF81FFFFFFFFFFFFFF85E
:101070001FFFFFFFFFFFFFF81FFFFFFFFFFFFFF84E
:101080001FFFFFFFFFFFFFF81FFFFFFFFFFFFFF83E
:101090001FFFFFFFFFFFFFF81FFFFFFFFFFFFFF82E
:1010A0001FFFFFFFFFFFFFF81FFFFFFFFFFFFFF81E
:1010B0001FFFFFFFFFFFFFF81FFFFFFFFFFFFFF80E
:1010C0001FFFFFFFFFFFFFF81FFFFFFFFFFFFFF8FE
:1010D0001FFFFFFFFFFFFFF81FFFFFFFFFFFFFF8EE
:1010E0001FFFFFFFFFFFFFF81FFFFFFFFFFFFFF8DE
:1010F0001FFFFFFFFFFFFFF81FFFFFFFFFFFFFF8CE
:101100001FFFFFFFFFFFFFF81FFFFFFFFFFFFFF8BD
:101110001FFFFFFFFFFFFFF81FFFFFFFFFFFFFF8AD
:101120001FF7FFFFFFFFFFF81F8DFFFFFFFFFFF817
:101130001C7DFFFFFFFFFFF819FDFFFFFFFFFFF81A
:101140001FFDFFFFFFFFFFF81FFDFFFFFFFFFFF881
:1011500017FDFFFFFFFFFFF817F9FFFFFFFFFFF885
:1011600017F9FFFFFFFFFFF817F9FFFFFFFFFFF879
:1011700017FDFFFFFFFFFFF817FDFFFFFFFFFFF861
:101180001BFDFFFFFFFFFFF81BFDFFFFFFFFFFF849
:101190001BFDFFFFFFFFFFF81BFDFFFFFFFFFFF839
:1011A0001BFC3FFFFFFFFFF81BFEBCFFFFFFFFF82C
:1011B0001DFFB2FFFFFFFFF81DFC0E7FFFFFFFF8D2
:1011C0001DF3B073FFFFFFF81ECFAE61FFFFFFF806
:1011D0001E9F9E00F8007FF81E7FFF0CC3FF9FF844
:1011E0001FFFFF1C2FFFE7F81FFFFFBCFFFFFBF8EF
:1011F0001FFFFFFDFFFFFBF81FFFFFF9FF8003F854
:101200001FFFFFFBFFF9E7F81FFFFFFBFFFC77F86D
:101210001FFFFFF7FFFE17F81FFFFFF7FFFF47F85D
:101220001FFFFFF1FFFF77F81FFFFFF0FFFFBFF881
:101230001FFFFFE0FFFFFFF81FFFFFE1FFFFBFF809
:101240001FFFFFE7FFFF3FF81FFFFFEFFFFE7FF8E5
:101250001FFFFFE7FFF8FFF81FFFFFE7FFFEFFF8A4
:101260001FFFFFF7FFFEFFF81FFFFFF7FFFEFFF86E
:101270001FFFFBF0FFFCFFF81FFFF9F07FFDFFF8F9
:101280001FFFF1F0FFFDFFF81FFFF1FBFFFDFFF86F
:101290001FFFF0FBFFFDFFF81FFFE0FDFFFDFFF864
:1012A0001FFFE0FDFFFDFFF81FFFCCFEFFF01FF862
:1012B0001FFFCEFE7FFFC7F81FFF8EFF3FFFF3F833
:1012C0001FFF8EF007FFF9F81FFF8EC7FAFFFDF82A
:1012D0001FFF8E1FFF7FFEF81FFF8E7FFF7FE2F84C
:1012E0001FFF8E7FFFBF00F81FFF8EFFFFC001F8BA
:1012F0001FFF8EFFFFF0FFF81FFF8EFFFFFBFFF8C1
:101300001FFFCEFFFFFBFFF81FFFCEFFFFFBFFF825
:101310001FFFCFFFFFFBFFF81FFFC7FFFFFBFFF81B
:101320001FFFE7FFFE39FFF81FFFE7FFFC19FFF87B
:101330001FFFF7FFFC19FFF81FFFF7FFFC09FFF87D
:101340001FFFF3FFFC1BFFF81FFFFBFFFE1BFFF857
:101350001FFFFBFFFFFBFFF81FFFFDFFFFFBFFF879
:101360001FFFFDFFC3F7FFF81FFFFEFFC3F7FFF8E6
:101370001FFFFE7FC3EFFFF81FFFFF3FEFEFFFF8F8
:101380001FFFFF9FF9DFFFF81FFFFFE0003FFFF89F
:101390001FFFFFF83E7FFFF81FFFFFFFFFFFFFF873
:1013A0001FFFFFFFFFFFFFF81FFFFFFFFFFFFFF81B
:1013B0001FFFFFFFFFFFFFF81FFFFFFFFFFFFFF80B
:1013C0001FFFFFFFFFFFFFF81FFFFFFFFFFFFFF8FB
:1013D0001FFFFFFFFFFFFFF81FFFFFFFFFFFFFF8EB
:1013E0001FFFFFFFFFFFFFF81FFFFFFFFFFFFFF8DB
:1013F0001FFFFFFFFFFFFFF81FFFFFFFFFFFFFF8CB
:101400001FFFFFFFFFFFFFF81FFFFFFFFFFFFFF8BA
:101410001FFFFFFFFFFFFFF81FFFFFFFFFFFFFF8AA
:101420001FFFFFFFFFFFFFF81FFFFFFFFFFFFFF89A
:101430001FFFFFFFFFFFFFF81FFFFFFFFFFFFFF88A
:101440001FFFFFFFFFFFFFF81FFFFFFFFFFFFFF87A
:101450001FFFFFFFFFFFFFF81FFFFFFFFFFFFFF86A
:101460001FFFFFFFFFFFFFF81FFFFFFFFFFFFFF85A
:101470001FFFFFFFFFFFFFF81FFFFFFFFFFFFFF84A
:101480001FFFFFFFFFFFFFF81FFFFFFFFFFFFFF83A
:101490001FFFFFFFFFFFFFF81FFFFFFFFFFFFFF82A
:1014A0001FFFFFFFFFFFFFF81FFFFFFFFFFFFFF81A
:1014B0001FFFFFFFFFFFFFF81FFFFFFFFFFFFFF80A
:1014C0001FFFFFFFFFFFFFF81FFFFFFFFFFFFFF8FA
:1014D0001FFFFFFFFFFFFFF81FFFFFFFFFFFFFF8EA
:1014E0001FFFFFFFFFFFFFF81FFFFFFFFFFFFFF8DA
:1014F0001FFFFFFFFFFFFFF81FFFFFFFFFFFFFF8CA
:101500001FFFFFFFFFFFFFF81F003FFFFFFFFFF878
:101510001F7FBFFFFFFFFFF81EFFBFFFFFFFFFF8AA
:101520001EFF7FFFFFFFFFF81EFF7FFFFFFFFFF89B
:101530001EFF7FFFFFFFFFF81EFF7FFFFFFFFFF88B
:101540001EFF7FFFFFFFFFF81EFF7FFFFFFFFFF87B
:101550001EFFFFFFFFFFFFF81EFEFFFFFFFFFFF86C
:101560001EFEFFFFFFFFFFF81EFEFFFFFFFFFFF85D
:101570001EFEFFFFFFFFFFF81EFEFFFFFFFFFFF84D
:101580001EFE0FFFFFFFFFF81EFFEE3FFFFFFFF8FD
:101590001F7F01DFFFFFFFF81F78C61EFFFFFFF868
:1015A0001F67E9987FFFFFF81F4FE7803FFFFFF8B5
:1015B0001FBFEFC13FFFFFF81FFFFFC70001FFF88C
:1015C0001FFFFFFF9E703FF81FFFFFFF3EFC1FF84D
:1015D0001FFFFFFF7FFF87F81FFFFFFEFFF7C3F826
:1015E0001FFFFFFCFFFBF1F81FFFFFFDFFFDF9F8F8
:1015F0001FFFFFFDFFFEFDF81FFFFFFBFFFE7EF854
:101600001FFFFFF8FFFF1EF81FFFFFF87FFF6EF8B8
:101610001FFFFFF03FFF72F81FFFFFF03FFF79F859
:101620001FFFFFF7FFFE7FF81FFFFFF7FFFCFFF82C
:101630001FFFFFF7FFF1FFF81FFFFFF7FF05FFF8A0
:101640001FFFFFF7FFFDFFF81FFFFFF7FFFFFFF88A
:101650001FFFFFF0FFFBFFF81FFFFFF07FFB0FF8FE
:101660001FFFF3F07FF8F3F81FFFE3F3FFE7FBF84A
:101670001FFFE2F7FFCFFBF81FFFC0FBFFBFF7F82C
:101680001FFFC0FBFFFFE7F81FFF80FBFFFFC3F852
:101690001FFF80FDFFFF97F81FFFA0FDFFFF2FF842
:1016A0001FFF71E0FFFF5FF81FFF791C3FFEBFF8CF
:1016B0001FFF78FFBFFC7FF81FFF79FFFFF0FFF8E7
:1016C0001FFF7BFFFFE3FFF81FFF73FFFF8FFFF894
:1016D0001FFF77FFFF3FFFF81FFF77FFFF7FFFF838
:1016E0001FFF77FFFF7FFFF81FFF7FFFFF7FFFF8E0
:1016F0001FFF7FFFFFBFFFF81FFF7FFFFFBFFFF848
:101700001FFF7FFFFFBFFFF81FFF7FFFCFBFFFF867
:101710001FFF7FFF87BFFFF81FFF7FFF03BFFFF89B
:101720001FFFFFFF03BFFFF81FFF7FFF07BFFFF88B
:101730001FFF7FFF8FBFFFF81FFF7FFFFFBFFFF877
:101740001FFF7FFFFFBFFFF81FFFBFFFFF7FFFF8F7
:101750001FFFBFFCFF7FFFF81FFF9FF87F7FFFF891
:101760001FFFDFF07EFFFFF81FFFEFF9FEFFFFF81E
:101770001FFFF3FFFDFFFFF81FFFF8FE79FFFFF8E3
:101780001FFFFF0187FFFFF81FFFFFFF8FFFFFF81D
:101790001FFFFFFFFFFFFFF81FFFFFFFFFFFFFF827
:1017A0001FFFFFFFFFFFFFF81FFFFFFFFFFFFFF817
:1017B0001FFFFFFFFFFFFFF81FFFFFFFFFFFFFF807
:1017C0001FFFFFFFFFFFFFF81FFFFFFFFFFFFFF8F7
:1017D0001FFFFFFFFFFFFFF81FFFFFFFFFFFFFF8E7
:1017E0001FFFFFFFFFFFFFF81FFFFFFFFFFFFFF8D7
:1017F0001FFFFFFFFFFFFFF81FFFFFFFFFFFFFF8C7
:101800001FFFFFFFFFFFFFF81FFFFFFFFFFFFFF8B6
:101810001FFFFFFFFFFFFFF81FFFFFFFFFFFFFF8A6
:101820001FFFFFFFFFFFFFF81FFFFFFFFFFFFFF896
:101830001FFFFFFFFFFFFFF81FFFFFFFFFFFFFF886
:101840001FFFFFFFFFFFFFF81FFFFFFFFFFFFFF876
:101850001FFFFFFFFFFFFFF81FFFFFFFFFFFFFF866
:101860001FFFFFFFFFFFFFF81FFFFFFFFFFFFFF856
:101870001FFFFFFFFFFFFFF81FFFFFFFFFFFFFF846
:101880001FFFFFFFFFFFFFF81FFFFFFFFFFFFFF836
:101890001FFFFFFFFFFFFFF81FFFFFFFFFFFFFF826
:1018A0001FFFFFFFFFFFFFF81FFFFFFFFFFFFFF816
:1018B0001FFFFFFFFFFFFFF81FFFFFFFFFFFFFF806
:1018C0001FFFFFFFFFFFFFF81FFFFFFFFFFFFFF8F6
:1018D0001FFFFFFFFFFFFFF81FFFFFFFFFFFFFF8E6
:1018E0001FFFFFFFFFFFFFF81FFFFFFFFFFFFFF8D6
:1018F0001FFFFFFFFFFFFFF81FFFFFFFFFFFFFF8C6
:101900001FFFFFFFFFFFFFF81FFFFFFFFFFFFFF8B5
:101910001FC0FFFFFFFFFFF81F9F1FFFFFFFFFF824
:101920001FBFE7FFFFFFFFF81FBFEFFFFFFFFFF83D
:101930001FBFEFFFFFFFFFF81FBFEFFFFFFFFFF825
:101940001FBFDFFFFFFFFFF81FBFDFFFFFFFFFF835
:101950001FBFDFFFFFFFFFF81F7FDFFFFFFFFFF865
:101960001F7FBFFFFFFFFFF81FFFBFFFFFFFFFF855
:101970001F7FBFFFFFFFFFF81FBFBFFFFFFFFFF885
:101980001FBFBFFFFFFFFFF81FBFBFFFFFFFFFF835
:101990001FBF8FFFFFFFFFF81FBFEFFFFFFFFFF825
:1019A0001FD01FFFFFFFFFF81FCFDC3FFFFFFFF837
:1019B0001FFFD3BFFFFFFFF81FFFDC1FFFFF03F870
:1019C0001FFFC79CFFF81DF81FFFFF80FFE0FDF819
:1019D0001FFFFF807F87FBF81FFFFFC2631FE7F831
:1019E0001FFFFFCF0C7F9FF81FFFFFFF3DFF7FF81A
:1019F0001FFFFFFF7DFEFFF81FFFFFFEFDFDFFF84D
:101A00001FFFFFFEFFFFFFF81FFFFFFDFFFDFFF8B9
:101A10001FFFFFFDFFFDFFF81FFFFFF87FFEFFF830
:101A20001FFFFFF83FFEFFF81FFFFFF87FFEFFF8E4
:101A30001FFFFFF3FFFF7FF81FFFFFF7FFFF7FF898
:101A40001FFFFFF7FFFEFFF81FFFFFF7FFFEFFF886
:101A50001FFFFFF7FFFEFFF81FFFFFF7FF7DFFF8F7
:101A60001FFFFFF0FF81FFF81FFFF8F0FFFDFFF8F9
:101A70001FFFF0F1FFFDFFF81FFFF0F3FFFDFFF880
:101A80001FFFE0F7FFFFFFF81FFFC0F7FFFBFFF8A6
:101A90001FFFD0F7FFFBFFF81FFFB8F7FFEBFFF8C2
:101AA0001FFFB8F3FFEBFFF81FFF7C00FFF3FFF809
:101AB0001FFF79FF7FF3FFF81FFF7BFFFBFBFFF8A2
:101AC0001FFEFBFFFFF9FFF81FFEF7FFFBFDFFF80E
:101AD0001FFEF7FFFBFEFFF81FFDFFFFFBFEFFF8F9
:101AE0001FFDFFFFFBFF7FF81FFDFFFFFDFF7FF8DE
:101AF0001FFDFFFFFCFFFFF81FFDFFFFFE7F3FF80C
:101B00001FFDFFFFFF3F7FF81FFDFFFFFF007FF876
:101B10001FFDFFFFFF60FFF81FFDFFFF8F7FFFF836
:101B20001FFDFFFF077FFFF81FFFFFFF037FFFF889
:101B30001FFEFFFF037FFFF81FFEFFFF077FFFF879
:101B40001FFEFFFF077FFFF81FFEFFFFCF7FFFF89D
:101B50001FFF7FFFFF7FFFF81FFF3FE1FEFFFFF842
:101B60001FFFBFE0FEFFFFF81FFFCFE1FDFFFFF803
:101B70001FFFE7FFFDFFFFF81FFFF1FFFBFFFFF86F
:101B80001FFFFE00E7FFFFF81FFFFFFE0FFFFFF83C
:101B90001FFFFFFF7FFFFFF81FFFFFFFFFFFFFF8A3
:101BA0001FFFFFFFFFFFFFF81FFFFFFFFFFFFFF813
:101BB0001FFFFFFFFFFFFFF81FFFFFFFFFFFFFF803
:101BC0001FFFFFFFFFFFFFF81FFFFFFFFFFFFFF8F3
:101BD0001FFFFFFFFFFFFFF81FFFFFFFFFFFFFF8E3
:101BE0001FFFFFFFFFFFFFF81FFFFFFFFFFFFFF8D3
:101BF0001FFFFFFFFFFFFFF81FFFFFFFFFFFFFF8C3
:101C00001FFFFFFFFFFFFFF81FFFFFFFFFFFFFF8B2
:101C10001FFFFFFFFFFFFFF81FFFFFFFFFFFFFF8A2
:101C20001FFFFFFFFFFFFFF81FFFFFFFFFFFFFF892
:101C30001FFFFFFFFFFFFFF81FFFFFFFFFFFFFF882
:101C40001FFFFFFFFFFFFFF81FFFFFFFFFFFFFF872
:101C50001FFFFFFFFFFFFFF81FFFFFFFFFFFFFF862
:101C60001FFFFFFFFFFFFFF81FFFFFFFFFFFFFF852
:101C7000000000000000000000065F5F060000009A
:101C80000007070007070000147F7F147F7F140000
:101C9000242E6B6B3A120000466630180C66620008
:101CA000307A4F5D377A48000407030000000000D7
:101CB000001C3E63410000000041633E1C00000028
:101CC000082A3E1C1C3E2A0808083E3E0808000060
:101CD00000A0E060000000000808080808080000F4
:101CE00000006060000000006030180C0603010076
:101CF0003E7F594D7F3E000042427F7F40400000C2
:101D0000627359496F660000226349497F360000BB
:101D1000181C16137F7F1000276745457D3900008A
:101D20003C7E4B4979300000036371190F070000B6
:101D3000367F49497F360000064F49693F1E000043
:101D400000006C6C0000000000A0EC6C00000000C3
:101D5000081C36634100000014141414141400000D
:101D6000004163361C080000020351590F060000B1
:101D70003E7F415D5D1F1E007C7E13137E7C000054
:101D8000417F7F49497F36001C3E63414163220009
:101D9000417F7F41637F1C00417F7F495D4163003C
:101DA000417F7F491D0103001C3E63415173720056
:101DB0007F7F08087F7F000000417F7F4100000097
:101DC000307040417F3F0100417F7F081C776300F6
:101DD000417F7F41406070007F7F060C067F7F005F
:101DE0007F7F060C187F7F001C3E6341633E1C0012
:101DF000417F7F49090F06001E3F21717F5E000071
:101E0000417F7F19396F460026674D597B320000AC
:101E100003417F7F410300007F7F40407F7F0000C0
:101E20001F3F60603F1F00007F7F3018307F7F00C2
:101E300063771C081C776300074F78784F07000012
:101E40006773594D47637100007F7F414100000077
:101E50000103060C183060000041417F7F00000044
:101E6000080C0603060C080080808080808080803B
:101E70000000030704000000207454543C78400024
:101E8000413F7F44447C3800387C44446C28000047
:101E9000307848493F7F4000387C54545C1800003B
:101EA000487E7F490302000098BCA4A4F87C04008B
:101EB000417F7F08047C780000447D7D4000000065
:101EC00040C484FD7D000000417F7F10386C4400D9
:101ED00000417F7F400000007C7C0C180C7C780067
:101EE0007C7C04047C780000387C44447C3800000E
:101EF00084FCF8A4243C1800183C24A4F8FC8400BA
:101F0000447C78441C180000485C5454742400003D
:101F100000043E7F442400003C7C40403C7C400068
:101F20001C3C60603C1C00003C7C6030607C3C00E1
:101F3000446C3810386C44009CBCA0A0FC7C0000B1
:101F40004C64745C4C64000008083E77414100001A
:101F500000000077770000004141773E080800004C
:101F6000020301030203010018187E3C1800000060
:101F700011241FBECFEFD4E0DEBFCDBF12E0A0E042
:101F8000B1E0EAE6FEE302C005900D92A438B10785
:101F9000D9F722E0A4E8B2E001C01D92A83AB20746
:101FA000E1F70E9480100C94331F0C94000092E51E
:101FB0009A95F1F78C5F8093001482E58A95F1F78A
:101FC0006091001470E060587109882777FD809552
:101FD000982F0E94BF1920E030E04EEF52E40E949B
:101FE000241920E030E048EC52E40E944B1A0E9491
:101FF0008C199B01675F7F4F6331710510F420E0FE
:1020000030E0C901089585B7806885BF80B78062D8
:1020100080BF0895329A84E690E099BD88BD089506
:10202000009731F000C000C0000001970097D1F781
:1020300008950F931F93CF93DF938C01EB011C1630
:102040001D065CF43A9AC8010E9410103A98C80123
:102050000E94101021972097A9F7DF91CF911F912F
:102060000F9108956FE070E08BE797E00E941910E0
:102070006FE070E084EA96E00E9419106FE070E073
:102080008FEE95E00E9419106FE070E08AEA95E00B
:102090000E9419106FE070E088E995E00E94191025
:1020A0006FE070E08BEF94E00E9419106FE070E039
:1020B00080E794E00E9419106FE070E086EF93E0F3
:1020C0000E94191064E170E084EA97E00E94191000
:1020D00008950E946C12882391F065E070E084EF0F
:1020E00091E00E94191065E070E08AEF90E00E9494
:1020F000191065E070E084E690E00E9419100895E0
:10210000CF93DF93CDB7DEB72A970FB6F894DEBF33
:102110000FBECDBF8FEF81BB88E187BB84E088BB5A
:102120000E94EE180E940A100E9403100E94CF1312
:102130000E94411180E096E09BBD8ABD8FB580640E
:102140008FBD8EB582608EBD8EB581608EBD8EB521
:1021500088608EBD89B7806489BF78940E947012B0
:102160000E946B140E941D178EE091E00E940D1BCF
:102170000FEF1FEFFF24F3940E94CE1480910C0107
:1021800090910D018430910509F45BC08630910572
:1021900009F463C0029781F7109286020E946B14C3
:1021A0000E94591468E08FE191E00E94A11469E651
:1021B00080E00E94B61468E087E892E00E94A114D3
:1021C0002FEF8FEF92E0215080409040E1F700C068
:1021D00000C01092840210930B0100930A018091B9
:1021E00084020E948C1528C0CE0101960E94A31182
:1021F0008FEF9FE20197F1F700C000008091850208
:102200008630D0F08981823099F48B81809384026A
:10221000809184020E948C158C81882349F0F09271
:1022200086020E943210809184020E94EC15A4CF95
:102230000E94121210928502809186028823A1F2D8
:102240009BCF0E9426169FEF2FEF82E091502040F7
:102250008040E1F700C000C08FCF0E94C3178CCF31
:102260001F920F920FB60F9211248F9380918502C7
:102270008F5F809385028F910F900FBE0F901F90FC
:1022800018950E94C41340E660EF80E60E945D133B
:1022900043E06FE08BE20E945D1340E060EE8FE070
:1022A0000E945D1380E18A95F1F700C0089580E3F4
:1022B00090E00E94841396958795969587959695BC
:1022C000879521E082278170992708951F93CF93E6
:1022D000DF93EC010E945711892B69F168816695A3
:1022E0006695669570E081E390E00E94A013688196
:1022F00080E2689FB001112482E390E00E94A01365
:10230000698170E085E390E00E94A01389818823B1
:1023100079F010E0812F90E0FE01E80FF91F628153
:1023200070E0C6960E94A0131F5F8981181790F372
:102330000E94C91304C089E291E00E940D1BDF9145
:10234000CF911F910895EF92FF920F931F93CF9318
:10235000DF937C018CE290E00E94841380FF44C0F4
:1023600081E690E00E948413C82F82E690E00E94EC
:10237000841396958795929582958F7089279F7083
:102380008927CC0FCC0FCC0F2C2F282BF7012083C3
:1023900085E690E00E948413F7018183893040F044
:1023A00088E0818387010E5F1F4FC0E0D0E003C04B
:1023B0008111F8CF0FC0CE018A599F4F0E9484131C
:1023C000F80181938F012196F701218130E0C21736
:1023D000D3078CF340E06FEF8DE20E945D1340E085
:1023E00061E08CE20E945D13DF91CF911F910F910C
:1023F000FF90EF9008952FB7F894E199FECF9FBB1F
:102400008EBB6DBBE29AE19A2FBF789408952FB7E7
:10241000F894E199FECF9FBB8EBBE09A2FBF7894D2
:102420008DB30895CF93DF9383E08093940287E088
:102430008093950280E00E94D70FC6E9D2E08C59C4
:10244000888381E00E94D70F8C598093970282E0A5
:102450000E94D70F8C598093980283E00E94D70F77
:102460008C59809399020E946C1280939A020E9468
:10247000561380939B020E945A1380939C0298816A
:1024800080918C0298130AC0E7E9F2E0ADE8B2E06F
:102490008DE992E031912D91321759F084E992E063
:1024A0000E9466118FEF9FE20197F1F700C00000D4
:1024B00003C0E817F90771F78AE0E4E9F2E0AAE857
:1024C000B2E001900D928A95E1F7DF91CF910895E6
:1024D00080E00E94D70F089581E0B29980E00895CE
:1024E0006F927F928F929F92AF92BF92CF92DF9224
:1024F000EF92FF920F931F93CF93DF930E946B1481
:102500000E9459146AE080E00E94B61468E085E3F6
:1025100091E00E94A1146AE082E00E94B61468E093
:1025200085E491E00E94A1146AE084E00E94B61460
:1025300068E08EE491E00E94A1146AE086E00E94C7
:10254000B61468E088E591E00E94A11480E00E9442
:10255000D70F8C0181E00E94D70FEC0180E00E9430
:10256000D70F982E892E81E00E94D70F782E692EE2
:1025700027E631E03F932F930E94F91A2A9681E0D3
:102580000F900F90659708F480E0882371F1065F43
:102590001F4F81E00531110508F480E0882329F1FF
:1025A0002FEF8FEF9EE0215080409040E1F700C078
:1025B00000008CE791E00E940D1B80E00E94D70F85
:1025C000EC0181E00E94D70F9C01265F3F4F81E024
:1025D0002531310508F480E0882339F02A9681E01E
:1025E000659708F480E08111DBCF0F2EFCE9AF2E58
:1025F000BB24BA94F02D0F2EF4E6CF2ED12CF02D63
:102600000F2EFCE9EF2EFF24FA94F02D04E610E0E3
:1026100020C02FEF8FE791E0215080409040E1F7FC
:1026200000C000C080E00E94D70FEC0181E00E9452
:10263000D70FC017D1070CF48E01EC16FD060CF471
:102640007E018C159D050CF46C01A816B9060CF4DE
:102650005C010E946C128823E1F26F927F928F924C
:102660009F92BF92AF92DF92CF92FF92EF921F9311
:102670000F9387EA91E09F938F930E94F91A8DB789
:102680009EB70E960FB6F8949EBF0FBE8DBFDF911A
:10269000CF911F910F91FF90EF90DF90CF90BF905F
:1026A000AF909F908F907F906F90089586B386959E
:1026B0008170089586B3817008951F93CF93DF933F
:1026C000182FD62FC42FC49800C000C0000085E08A
:1026D0000E94D61800C000C00000812F0E94D618AA
:1026E00000C000C000008D2F0E94D61800C000C09E
:1026F00000008C2F0E94D61800C000C00000C49AB1
:10270000DF91CF911F910895CF93C82FC49800C037
:1027100000C0000083E00E94D61800C000C0000086
:102720008C2F0E94D61800C000C000008FEF0E94BE
:10273000D61800C000C00000C49A90E0CF91089560
:10274000CF93DF93D82FC62FC49800C000C00000DD
:1027500082E00E94D61800C000C000008D2F0E94A9
:10276000D61800C000C000008C2F0E94D61800C0F0
:1027700000C00000C49ADF91CF910895C49880EC06
:102780000E94D618C49A08950E94CD180E94BE13C4
:102790000895C49887E80E94D618C49A089585B70A
:1027A000806885BF80B7806280BFE0910801F091AA
:1027B00009018EEA8083E0910801F091090181EA24
:1027C0008083E0910801F09109018AED8083E09116
:1027D0000801F091090182E18083E0910801F09104
:1027E000090188EC8083E0910801F091090188EAF1
:1027F0008083E0910801F09109018FE38083E091EB
:102800000801F091090185ED8083E0910801F091C4
:10281000090180E88083E0910801F091090181E8D5
:102820008083E0910801F091090180E58083E091C7
:102830000801F091090189ED8083E0910801F09190
:10284000090181E28083E0910801F091090180E2B1
:102850008083E0910801F091090182E08083E0919A
:102860000801F09109018BED8083E0910801F0915E
:10287000090180E38083E0910801F09109018DEA6C
:102880008083E0910801F09109011082E091080134
:10289000F091090184EA8083E0910801F091090137
:1028A00086EA8083E0910801F09109018FEA808334
:1028B0000895E0910801F091090180EB8083E09197
:1028C0000801F09109011082E0910801F0910901DD
:1028D00080E18083089520EB40E830E0E09108013A
:1028E000F09109012083842F932FE0910601F0914C
:1028F0000701108201970097C1F72F5F283B71F7FE
:102900000E945914089570E016161706BCF4E82FBB
:10291000F0E0EE0FFF1FEE0FFF1FEE0FFF1FE0595D
:10292000F44E80E090E0A0910601B091070124915F
:102930002C930196319686179707ACF380E090E0D0
:1029400008951F93CF93DF93EC01162F888188237E
:1029500039F02196612F0E94831489918111FACF59
:1029600080E090E0DF91CF911F9108958830A8F426
:10297000962F9F70E0910801F091090180558083A6
:10298000E0910801F09109019083E0910801F09134
:10299000090162956F70606160830895EF92FF9204
:1029A0000F931F93CF93DF930E946B140E945914CF
:1029B00069E680E00E94B61468E087E892E00E9431
:1029C000A11460E080E00E94B61468E089EF91E015
:1029D0000E94A1146AE082E00E94B61468E083E0DD
:1029E00092E00E94A1146AE084E00E94B61468E0BC
:1029F0008DE092E00E94A1146AE086E00E94B61485
:102A000068E087E192E00E94A11460E080910C01EF
:102A10000E94B61468E08FE70E948314CCE0D1E0F6
:102A20006894EE24E1F8F12C06E010E069C00E9401
:102A3000681283338CF165E070E084E690E00E94D8
:102A4000191060E088810E94B61468E080E20E945C
:102A5000831480910C0190910D01029782309105B1
:102A60002CF090930D0180930C0104C010930D0184
:102A700000930C0160E088810E94B61468E08FE743
:102A80000E9483142FEF8FE794E021508040904004
:102A9000E1F700C0000034C00E9468128E3C84F54B
:102AA00065E070E084E690E00E94191060E08881A3
:102AB0000E94B61468E080E20E94831480910C01A9
:102AC00090910D010296873091052CF490930D01A1
:102AD00080930C0104C0F0920D01E0920C0160E0C3
:102AE00088810E94B61468E08FE70E9483142FEF5C
:102AF0008FE794E0215080409040E1F700C0000053
:102B00000E946C12882309F492CFDF91CF911F911C
:102B10000F91FF90EF9008951F93CF93DF93C82FED
:102B2000482F50E020910A0130910B0142175307C2
:102B300009F44EC00E94591468E08FE191E00E94B0
:102B4000A1146AE085E00E94B61468E08EE192E08C
:102B50000E94A1146EE485E00E94B6141DECC19F92
:102B6000D12D1124D695D695D6958D2F880F982FD7
:102B7000990F990F890FC81B8C2F68E0805D0E9408
:102B8000831466E485E00E94B614D19FC12D112400
:102B9000C695C695C6958C2F880F982F990F990FBB
:102BA000890FD81B8D2F68E0805D0E9483146EE32F
:102BB00085E00E94B61468E080E38C0F0E948314C5
:102BC0008C2F90E090930B0180930A010E94691072
:102BD000DF91CF911F910895CF93C82F80E090E0AF
:102BE0000E9407128C17B8F46C2F80E090E00E94CE
:102BF000FB116091870281E090E00E94FB116091DF
:102C0000880282E090E00E94FB116091890283E0DB
:102C100090E00E94FB116C2F80E190E00E94FB117C
:102C20006AE083E00E94B61468E086E292E00E94C7
:102C3000A1142FEF8FEF9AE4215080409040E1F7EC
:102C400000C000000E946B14CF910895CF92DF92D4
:102C5000EF92FF920F931F93CF93DF9380E090E06A
:102C60000E940712082F81E090E00E940712182F9F
:102C700082E090E00E940712C82E83E090E00E945C
:102C80000712D82E80E190E00E940712E82E0E94E1
:102C90006B140E94591468E085E392E00E94A1142D
:102CA00060E083E00E94B61468E084E492E00E9451
:102CB000A11468E0809187020E94831468E08091EB
:102CC00088020E94831468E0809189020E94831424
:102CD00062E384E00E94B61460E08FE492E00E9418
:102CE000A114F12C6EE484E00E94B614CAE0D0E096
:102CF000C701BE010E94FC187B0168E0805D0E9454
:102D0000831466E484E00E94B614C701BE010E94E9
:102D1000FC187B0168E0805D0E9483146EE384E010
:102D20000E94B614C701BE010E94FC1868E0805DD5
:102D30000E94831460E086E00E94B61468E086E595
:102D400092E00E94A1141F921F9321E632E03F936C
:102D50002F930E94F91A68E0812F0E94831468E083
:102D60008C2D0E94831468E08D2D0E94831462E3F1
:102D700087E00E94B61460E08FE492E00E94A11404
:102D800010E06EE487E00E94B614C801BE010E9404
:102D9000FC188B0168E0805D0E94831466E487E084
:102DA0000E94B614C801BE010E94FC188B0168E0A5
:102DB000805D0E9483146EE387E00E94B614C80110
:102DC000BE010E94FC1868E0805D0E9483142FEF12
:102DD0008FE797E0215080409040E1F700C000006D
:102DE0000F900F900F900F901BC00E945613C82F8A
:102DF0000E945A138C23A1F060E080E090E00E94D2
:102E0000FB1160E081E090E00E94FB1160E082E055
:102E100090E00E94FB1160E083E090E00E94FB11D3
:102E20000E946C12882309F3DF91CF911F910F91BB
:102E3000FF90EF90DF90CF900895DF92EF92FF9296
:102E40000F931F93CF93DF930E946B140E9459142A
:102E500068E088E692E00E94A11460E084E00E94AD
:102E6000B61468E088E792E00E94A11468E284E06A
:102E70000E94B61408E210E0C0E0D0E06894EE24AE
:102E8000E6F8FF24F394D12C0E9468128333CCF02F
:102E900065E070E084E690E00E941910602F84E005
:102EA0000E94B614E39468E08E2D0E9483142FEFE5
:102EB0008FEB93E0215080409040E1F700C000008C
:102EC0001CC00E9468128E3CC4F465E070E084E689
:102ED00090E00E941910602F84E00E94B614EA94DA
:102EE00068E08E2D0E9483142FEF8FEB93E021502A
:102EF00080409040E1F700C000000E945A138130EA
:102F000081F4FE01E957FD4FE0822196085F1F4FD3
:102F10002FEF8FE797E0215080409040E1F700C00D
:102F200000000E945A139F2DC130D10509F09D2D3C
:102F3000992351F09F2D813009F09D2D992321F087
:102F4000602F84E00E94B6140E945A139F2D813096
:102F500009F09D2D992359F08F2DC230D10509F02C
:102F60008D2D882321F0602F84E00E94B614C33099
:102F7000D1050CF489CFDF91CF911F910F91FF9074
:102F8000EF90DF9008956F927F928F929F92AF9211
:102F9000BF92CF92DF92EF92FF920F931F93CF9346
:102FA000DF930E945914E0910801F091090180E239
:102FB0008083E0910801F091090181E080830F2E68
:102FC000FAE0AF2EB12CF02D612C712C862C972CB1
:102FD0004AC02FEF8FE791E0215080409040E1F709
:102FE00000C000C0C82DD92DC60180599F4F7C015B
:102FF000CE01F701EC0FFD1F2491E22FEE0FEA7ACC
:1030000026952575E22B6E2F660F660F6C7CE69574
:10301000E695E3736E2B6295E0910601F09107014E
:1030200060830115110529F470E0CE010E94DB18C0
:1030300007C00530110521F470E09C5F0E94DB1889
:103040002196C11594E0D90799F60F5F1F4FECEF59
:10305000DE1A0730110509F0BCCFF1E0AF1AB10854
:10306000A114B10429F0C62CD72C062D172DB1CFF1
:10307000E0910801F091090180E28083E09108016C
:10308000F091090182E080830E946B140E94591420
:1030900068E08EE792E00E94A1142FEF8FEF9EE090
:1030A000215080409040E1F700C000000E94591478
:1030B000E0910801F091090180E28083E09108012C
:1030C000F091090181E080830F2EF2E3EF2EF12CC5
:1030D000F02DA12CB12CC12C6894DD24D2F81FC096
:1030E000EFEFFFEF22E0E150F0402040E1F700C0B9
:1030F00000C0CC2DDD2D0091060110910701CE01FD
:103100000E94E118F80180832196C115F8E0DF07DD
:1031100091F721E0E21AF108E114F104D1F08FEF08
:103120009FEFE2E081509040E040E1F700C000C036
:10313000CA2DDB2D0091060110910701CE010E94DE
:10314000E118F80180832196C115F4E0DF0791F7BB
:10315000C7CF2FEF8FEF9DE1215080409040E1F7E6
:1031600000C00000E0910801F091090180E2808335
:10317000E0910801F091090182E08083DF91CF9115
:103180001F910F91FF90EF90DF90CF90BF90AF9085
:103190009F908F907F906F900895BE9887B3806BBB
:1031A00087BBC49A8DB181658DB908958FB9779B1E
:1031B000FECF8FB10895985EFC01608380E090E0BF
:1031C0000895985EFC01808190E008955F9BFECF9A
:1031D0008CB108955D9BFECF8CB9089510BC8FE132
:1031E00089B988E18AB98EE880BD66EE78E18AEE19
:1031F00098E10E94AE1A089597FB072E16F40094EA
:1032000007D077FD09D00E94101907FC05D03EF4C5
:10321000909581959F4F0895709561957F4F089582
:10322000AA1BBB1B51E107C0AA1FBB1FA617B707EC
:1032300010F0A61BB70B881F991F5A95A9F7809508
:103240009095BC01CD0108950CD0EBC0E3D040F0C7
:10325000DAD030F021F45F3F19F0CCC0511115C124
:10326000CFC0F0D098F39923C9F35523B1F3951B40
:10327000550BBB27AA2762177307840738F09F5F97
:103280005F4F220F331F441FAA1FA9F333D00E2E06
:103290003AF0E0E830D091505040E695001CCAF773
:1032A00029D0FE2F27D0660F771F881FBB1F261738
:1032B00037074807AB07B0E809F0BB0B802DBF010B
:1032C000FF2793585F4F2AF09E3F510568F092C048
:1032D000DCC05F3FECF3983EDCF38695779567950D
:1032E000B795F7959F5FC9F7880F911D96958795BC
:1032F00097F90895E1E0660F771F881FBB1F6217DB
:1033000073078407BA0720F0621B730B840BBA0B98
:10331000EE1F88F7E095089504D06894B111B5C008
:10332000089598D088F09F5790F0B92F9927B751FA
:10333000A0F0D1F0660F771F881F991F1AF0BA9579
:10334000C9F712C0B13081F09FD0B1E008959CC0A0
:10335000672F782F8827B85F39F0B93FCCF386956F
:1033600077956795B395D9F73EF4909580957095CC
:1033700061957F4F8F4F9F4F0895E89409C097FB49
:103380003EF490958095709561957F4F8F4F9F4F3C
:103390009923A9F0F92F96E9BB279395F695879580
:1033A00077956795B795F111F8CFFAF4BB0F11F443
:1033B00060FF1BC06F5F7F4F8F4F9F4F16C08823EA
:1033C00011F096E911C0772321F09EE8872F762F20
:1033D00005C0662371F096E8862F70E060E02AF061
:1033E0009A95660F771F881FDAF7880F969587954D
:1033F00097F9089597F99F6780E870E060E0089575
:103400009FEF80EC089500240A94161617061806FC
:103410000906089500240A941216130614060506D8
:103420000895092E0394000C11F4882352F0BB0F69
:1034300040F4BF2B11F460FF04C06F5F7F4F8F4FCC
:103440009F4F089557FD9058440F551F59F05F3F07
:1034500071F04795880F97FB991F61F09F3F79F0B6
:1034600087950895121613061406551FF2CF469538
:10347000F1DF08C0161617061806991FF1CF8695BA
:103480007105610508940895E894BB27662777279E
:10349000CB0197F908950BD0C4CFB5DF28F0BADF80
:1034A00018F0952309F0A6CFABCF1124EECFCADFD9
:1034B000A0F3959FD1F3950F50E0551F629FF00147
:1034C000729FBB27F00DB11D639FAA27F00DB11DA0
:1034D000AA1F649F6627B00DA11D661F829F222729
:1034E000B00DA11D621F739FB00DA11D621F839FB0
:1034F000A00D611D221F749F3327A00D611D231F86
:10350000849F600D211D822F762F6A2F11249F57D3
:1035100050408AF0E1F088234AF0EE0FFF1FBB1FF6
:10352000661F771F881F91505040A9F79E3F510595
:1035300070F060CFAACF5F3FECF3983EDCF3869546
:1035400077956795B795F795E7959F5FC1F7FE2B40
:10355000880F911D9695879597F908950F931F935E
:10356000CF93DF93EC018B01009731F46115710566
:1035700019F480E090E038C06EE070E081E090E007
:103580000E940C1DFC010097A1F380E883830115C4
:10359000110571F01387028781E8838380919E0271
:1035A00090919F02892B21F4F0939F02E0939E0259
:1035B0002097C9F0D187C0878381826083838091FF
:1035C000A0029091A102892B71F4F093A102E093E3
:1035D000A0028091A2029091A302892B21F4F09382
:1035E000A302E093A202CF01DF91CF911F910F912F
:1035F0000895A0E0B0E0EFEFFAE10C940C1FFE019B
:10360000359661917191AF018091A0029091A102D4
:103610000E943A1BE2E00C94281F0F931F93CF9354
:10362000DF93E091A002F091A102238121FF1BC052
:10363000EC0100E010E089916091A0027091A1027C
:10364000DB011896ED91FC911997882331F00995CB
:10365000892B89F30FEF1FEFEECF8AE00995892BB5
:1036600011F4C80102C08FEF9FEFDF91CF911F913E
:103670000F910895ACE0B0E0E0E4FBE10C94FC1E97
:103680007C016B018A01FC0117821682838181FF14
:10369000BDC1CE0101964C01F7019381F60193FD66
:1036A000859193FF81916F01882309F4ABC1853225
:1036B00039F493FD859193FF81916F01853229F44F
:1036C000B70190E00E946C1EE7CF512C312C20E016
:1036D0002032A0F48B3269F030F4803259F083321A
:1036E00069F420612CC08D3239F0803339F42160C7
:1036F00026C02260246023C0286021C027FD27C087
:1037000030ED380F3A3078F426FF06C0FAE05F9EBD
:10371000300D1124532E13C08AE0389E300D112431
:10372000332E20620CC08E3221F426FD6BC1206442
:1037300006C08C3611F4206802C0883641F4F601C8
:1037400093FD859193FF81916F018111C1CF982FD6
:103750009F7D9554933028F40C5F1F4FFFE3F9834E
:103760000DC0833631F0833771F0833509F05BC0CB
:1037700022C0F801808189830E5F1F4F4424439447
:10378000512C540115C03801F2E06F0E711CF80184
:10379000A080B18026FF03C0652D70E002C06FEFEE
:1037A0007FEFC5012C870E94611E2C0183012C85AF
:1037B0002F77222E17C03801F2E06F0E711CF8012E
:1037C000A080B18026FF03C0652D70E002C06FEFBE
:1037D0007FEFC5012C870E944F1E2C012C8520688D
:1037E000222E830123FC1BC0832D90E0481659062E
:1037F000B0F4B70180E290E00E946C1E3A94F4CFDE
:10380000F50127FC859127FE81915F01B70190E0CA
:103810000E946C1E31103A94F1E04F1A5108411485
:10382000510471F7E5C0843611F0893639F5F80195
:1038300027FF07C060817181828193810C5F1F4FD8
:1038400008C060817181882777FD8095982F0E5F71
:103850001F4F2F76B22E97FF09C0909580957095D7
:1038600061957F4F8F4F9F4F2068B22E2AE030E046
:10387000A4010E949E1EA82EA81844C0853729F4D2
:103880002F7EB22E2AE030E025C0F22FF97FBF2E26
:103890008F36C1F018F4883579F0B4C0803719F04C
:1038A000883721F0AFC02F2F2061B22EB4FE0DC09B
:1038B0008B2D8460B82E09C024FF0AC09F2F96600C
:1038C000B92E06C028E030E005C020E130E002C09B
:1038D00020E132E0F801B7FE07C06081718182818A
:1038E00093810C5F1F4F06C06081718180E090E082
:1038F0000E5F1F4FA4010E949E1EA82EA818FB2D2C
:10390000FF77BF2EB6FE0BC02B2D2E7FA51450F4D3
:10391000B4FE0AC0B2FC08C02B2D2E7E05C07A2C46
:103920002B2D03C07A2C01C0752C24FF0DC0FE0185
:10393000EA0DF11D8081803311F4297E09C022FF38
:1039400006C07394739404C0822F867809F0739430
:1039500023FD13C020FF06C05A2C731418F4530C17
:103960005718732C731468F4B70180E290E02C8729
:103970000E946C1E73942C85F5CF731410F43718C5
:1039800001C0312C24FF12C0B70180E390E02C87E6
:103990000E946C1E2C8522FF17C021FF03C088E502
:1039A00090E002C088E790E0B7010CC0822F8678D3
:1039B00059F021FD02C080E201C08BE227FD8DE2BB
:1039C000B70190E00E946C1EA51438F4B70180E3A3
:1039D00090E00E946C1E5A94F7CFAA94F401EA0D6D
:1039E000F11D8081B70190E00E946C1EA110F5CFFF
:1039F000332009F451CEB70180E290E00E946C1EA2
:103A00003A94F6CFF7018681978102C08FEF9FEF3E
:103A10002C96E2E10C94181F0F931F93CF93DF9322
:103A2000869F8001879F100D969F100D1124C8015D
:103A30000E94281DEC01009729F0A80160E070E0C9
:103A40000E945A1ECE01DF91CF911F910F910895D0
:103A5000CF93DF938230910510F482E090E0E09103
:103A6000A602F091A70220E030E0A0E0B0E030979D
:103A700039F14081518148175907B8F04817590763
:103A800071F482819381109729F013969C938E9301
:103A900012972CC09093A7028093A60227C02115ED
:103AA000310531F04217530718F0A901DB0101C0BD
:103AB000EF019A01BD01DF010280F381E02DD7CF34
:103AC00021153105F9F0281B390B2430310580F41C
:103AD0008A819B816115710521F0FB0193838283AB
:103AE00004C09093A7028093A602FE01329644C0C0
:103AF000FE01E20FF31F8193919322503109398324
:103B000028833AC02091A4023091A502232B41F4CE
:103B100020910201309103013093A5022093A40269
:103B200020910001309101012115310541F42DB79B
:103B30003EB74091040150910501241B350BE091E3
:103B4000A402F091A502E217F307A0F42E1B3F0B8D
:103B50002817390778F0AC014E5F5F4F24173507FF
:103B600048F04E0F5F1F5093A5024093A40281932B
:103B7000919302C0E0E0F0E0CF01DF91CF91089592
:103B8000CF93DF93009709F487C0FC01329713822B
:103B90001282C091A602D091A702209781F42081C1
:103BA0003181280F391F8091A4029091A5028217BC
:103BB000930779F5F093A502E093A4026DC0DE01AE
:103BC00020E030E0AE17BF0750F412964D915C91A3
:103BD00013979D014115510509F1DA01F3CFB38324
:103BE000A28340815181840F951F8A179B0771F42E
:103BF0008D919C911197840F951F029691838083DC
:103C000012968D919C911397938382832115310590
:103C100029F4F093A702E093A6023EC0D9011396BF
:103C2000FC93EE9312974D915D91A40FB51FEA1787
:103C3000FB0779F480819181840F951F0296D90149
:103C400011969C938E938281938113969C938E936D
:103C50001297E0E0F0E08A819B81009719F0FE0165
:103C6000EC01F9CFCE01029628813981820F931F92
:103C70002091A4023091A5022817390769F43097E2
:103C800029F41092A7021092A60202C01382128297
:103C9000D093A502C093A402DF91CF910895FC01B7
:103CA0000590615070400110D8F7809590958E0F67
:103CB0009F1F0895DC0101C06D9341505040E0F713
:103CC0000895FC016150704001900110D8F7809573
:103CD00090958E0F9F1F08950F931F93CF93DF939F
:103CE000182F092FEB018B8181FD03C08FEF9FEF10
:103CF00020C082FF10C04E815F812C813D81421720
:103D000053077CF4E881F9819F012F5F3F4F39838E
:103D10002883108306C0E885F985812F0995892BB2
:103D200029F72E813F812F5F3F4F3F832E83812FC5
:103D3000902FDF91CF911F910F910895FA01AA273B
:103D4000283051F1203181F1E8946F936E7F6E5FDE
:103D50007F4F8F4F9F4FAF4FB1E03ED0B4E03CD08C
:103D6000670F781F891F9A1FA11D680F791F8A1F6F
:103D7000911DA11D6A0F711D811D911DA11D20D0D6
:103D800009F468943F912AE0269F11243019305D90
:103D90003193DEF6CF010895462F4770405D419381
:103DA000B3E00FD0C9F7F6CF462F4F70405D4A33CE
:103DB00018F0495D31FD4052419302D0A9F7EACF96
:103DC000B4E0A6959795879577956795BA95C9F7C5
:103DD00000976105710508959B01AC010A2E0694B8
:103DE0005795479537952795BA95C9F7620F731F71
:103DF000841F951FA01D08952F923F924F925F92AE
:103E00006F927F928F929F92AF92BF92CF92DF92EA
:103E1000EF92FF920F931F93CF93DF93CDB7DEB74F
:103E2000CA1BDB0B0FB6F894DEBF0FBECDBF0994E3
:103E30002A88398848885F846E847D848C849B843A
:103E4000AA84B984C884DF80EE80FD800C811B8148
:103E5000AA81B981CE0FD11D0FB6F894DEBF0FBE77
:0A3E6000CDBFED010895F894FFCFE7
:103E6A000000A802200000120010FFFF0200537495
:103E7A006172742070E52070726F6772616D005014
:103E8A00494E472D504F4E470053656E6474652066
:103E9A00696B6B650056656E6E6C69677374207228
:103EAA006F746572004A6F79737469636B00446555
:103EBA007265747465723A005472796B6B204A6F3A
:103ECA00796B6E61707000526F74617465207468EA
:103EDA0065206A6F79737469636B2000526F74612D
:103EEA007465206A6F79737469636B20616E6420EC
:103EFA0070726573732062757474656E2077686575
:103F0A006E20646F6E65004B616C696272657274D3
:103F1A006520766572646965723A200A20784D696F
:103F2A006E3A20256920784D616B733A2025692005
:103F3A00794D696E3A20256920794D616B733A2073
:103F4A002569200A20784156473A20256920794177
:103F5A0056473A202569200A00506F6B65506F6EEC
:103F6A0067210050696E672D506F6E670048696758
:103F7A006873636F72650052616E646F6D0053639C
:103F8A006F72653A200047414D45204F56455221F0
:103F9A00203A2D28004849474853434F5245204C60
:103FAA004953540043757272656E743A2020005367
:103FBA00636F72653A00416C6C2074696D653A20D2
:103FCA000048533A2025630043484F4F5345205534
:103FDA005345524E414D45004E616D653A0053526C
:043FEA00414D000045
:00000001FF
